{
  "contractName": "PropertyV2",
  "abi": [
    {
      "inputs": [],
      "stateMutability": "nonpayable",
      "type": "constructor"
    },
    {
      "anonymous": false,
      "inputs": [
        {
          "indexed": true,
          "internalType": "address",
          "name": "owner",
          "type": "address"
        },
        {
          "indexed": true,
          "internalType": "address",
          "name": "approved",
          "type": "address"
        },
        {
          "indexed": true,
          "internalType": "uint256",
          "name": "tokenId",
          "type": "uint256"
        }
      ],
      "name": "Approval",
      "type": "event"
    },
    {
      "anonymous": false,
      "inputs": [
        {
          "indexed": true,
          "internalType": "address",
          "name": "owner",
          "type": "address"
        },
        {
          "indexed": true,
          "internalType": "address",
          "name": "operator",
          "type": "address"
        },
        {
          "indexed": false,
          "internalType": "bool",
          "name": "approved",
          "type": "bool"
        }
      ],
      "name": "ApprovalForAll",
      "type": "event"
    },
    {
      "anonymous": false,
      "inputs": [
        {
          "indexed": true,
          "internalType": "address",
          "name": "previousOwner",
          "type": "address"
        },
        {
          "indexed": true,
          "internalType": "address",
          "name": "newOwner",
          "type": "address"
        }
      ],
      "name": "OwnershipTransferred",
      "type": "event"
    },
    {
      "anonymous": false,
      "inputs": [
        {
          "indexed": true,
          "internalType": "uint256",
          "name": "propertyId",
          "type": "uint256"
        },
        {
          "indexed": false,
          "internalType": "string",
          "name": "location",
          "type": "string"
        },
        {
          "indexed": false,
          "internalType": "uint256",
          "name": "price",
          "type": "uint256"
        }
      ],
      "name": "PropertyCreated",
      "type": "event"
    },
    {
      "anonymous": false,
      "inputs": [
        {
          "indexed": true,
          "internalType": "uint256",
          "name": "propertyId",
          "type": "uint256"
        },
        {
          "indexed": true,
          "internalType": "address",
          "name": "buyer",
          "type": "address"
        },
        {
          "indexed": false,
          "internalType": "uint256",
          "name": "price",
          "type": "uint256"
        }
      ],
      "name": "PropertySold",
      "type": "event"
    },
    {
      "anonymous": false,
      "inputs": [
        {
          "indexed": true,
          "internalType": "address",
          "name": "from",
          "type": "address"
        },
        {
          "indexed": true,
          "internalType": "address",
          "name": "to",
          "type": "address"
        },
        {
          "indexed": true,
          "internalType": "uint256",
          "name": "tokenId",
          "type": "uint256"
        }
      ],
      "name": "Transfer",
      "type": "event"
    },
    {
      "inputs": [
        {
          "internalType": "address",
          "name": "to",
          "type": "address"
        },
        {
          "internalType": "uint256",
          "name": "tokenId",
          "type": "uint256"
        }
      ],
      "name": "approve",
      "outputs": [],
      "stateMutability": "nonpayable",
      "type": "function"
    },
    {
      "inputs": [
        {
          "internalType": "address",
          "name": "owner",
          "type": "address"
        }
      ],
      "name": "balanceOf",
      "outputs": [
        {
          "internalType": "uint256",
          "name": "",
          "type": "uint256"
        }
      ],
      "stateMutability": "view",
      "type": "function",
      "constant": true
    },
    {
      "inputs": [
        {
          "internalType": "uint256",
          "name": "tokenId",
          "type": "uint256"
        }
      ],
      "name": "getApproved",
      "outputs": [
        {
          "internalType": "address",
          "name": "",
          "type": "address"
        }
      ],
      "stateMutability": "view",
      "type": "function",
      "constant": true
    },
    {
      "inputs": [
        {
          "internalType": "address",
          "name": "owner",
          "type": "address"
        },
        {
          "internalType": "address",
          "name": "operator",
          "type": "address"
        }
      ],
      "name": "isApprovedForAll",
      "outputs": [
        {
          "internalType": "bool",
          "name": "",
          "type": "bool"
        }
      ],
      "stateMutability": "view",
      "type": "function",
      "constant": true
    },
    {
      "inputs": [],
      "name": "name",
      "outputs": [
        {
          "internalType": "string",
          "name": "",
          "type": "string"
        }
      ],
      "stateMutability": "view",
      "type": "function",
      "constant": true
    },
    {
      "inputs": [],
      "name": "owner",
      "outputs": [
        {
          "internalType": "address",
          "name": "",
          "type": "address"
        }
      ],
      "stateMutability": "view",
      "type": "function",
      "constant": true
    },
    {
      "inputs": [
        {
          "internalType": "uint256",
          "name": "tokenId",
          "type": "uint256"
        }
      ],
      "name": "ownerOf",
      "outputs": [
        {
          "internalType": "address",
          "name": "",
          "type": "address"
        }
      ],
      "stateMutability": "view",
      "type": "function",
      "constant": true
    },
    {
      "inputs": [
        {
          "internalType": "uint256",
          "name": "",
          "type": "uint256"
        }
      ],
      "name": "properties",
      "outputs": [
        {
          "internalType": "uint256",
          "name": "id",
          "type": "uint256"
        },
        {
          "internalType": "string",
          "name": "location",
          "type": "string"
        },
        {
          "internalType": "uint256",
          "name": "price",
          "type": "uint256"
        }
      ],
      "stateMutability": "view",
      "type": "function",
      "constant": true
    },
    {
      "inputs": [],
      "name": "renounceOwnership",
      "outputs": [],
      "stateMutability": "nonpayable",
      "type": "function"
    },
    {
      "inputs": [
        {
          "internalType": "address",
          "name": "from",
          "type": "address"
        },
        {
          "internalType": "address",
          "name": "to",
          "type": "address"
        },
        {
          "internalType": "uint256",
          "name": "tokenId",
          "type": "uint256"
        }
      ],
      "name": "safeTransferFrom",
      "outputs": [],
      "stateMutability": "nonpayable",
      "type": "function"
    },
    {
      "inputs": [
        {
          "internalType": "address",
          "name": "from",
          "type": "address"
        },
        {
          "internalType": "address",
          "name": "to",
          "type": "address"
        },
        {
          "internalType": "uint256",
          "name": "tokenId",
          "type": "uint256"
        },
        {
          "internalType": "bytes",
          "name": "data",
          "type": "bytes"
        }
      ],
      "name": "safeTransferFrom",
      "outputs": [],
      "stateMutability": "nonpayable",
      "type": "function"
    },
    {
      "inputs": [
        {
          "internalType": "address",
          "name": "operator",
          "type": "address"
        },
        {
          "internalType": "bool",
          "name": "approved",
          "type": "bool"
        }
      ],
      "name": "setApprovalForAll",
      "outputs": [],
      "stateMutability": "nonpayable",
      "type": "function"
    },
    {
      "inputs": [
        {
          "internalType": "bytes4",
          "name": "interfaceId",
          "type": "bytes4"
        }
      ],
      "name": "supportsInterface",
      "outputs": [
        {
          "internalType": "bool",
          "name": "",
          "type": "bool"
        }
      ],
      "stateMutability": "view",
      "type": "function",
      "constant": true
    },
    {
      "inputs": [],
      "name": "symbol",
      "outputs": [
        {
          "internalType": "string",
          "name": "",
          "type": "string"
        }
      ],
      "stateMutability": "view",
      "type": "function",
      "constant": true
    },
    {
      "inputs": [
        {
          "internalType": "uint256",
          "name": "tokenId",
          "type": "uint256"
        }
      ],
      "name": "tokenURI",
      "outputs": [
        {
          "internalType": "string",
          "name": "",
          "type": "string"
        }
      ],
      "stateMutability": "view",
      "type": "function",
      "constant": true
    },
    {
      "inputs": [
        {
          "internalType": "address",
          "name": "from",
          "type": "address"
        },
        {
          "internalType": "address",
          "name": "to",
          "type": "address"
        },
        {
          "internalType": "uint256",
          "name": "tokenId",
          "type": "uint256"
        }
      ],
      "name": "transferFrom",
      "outputs": [],
      "stateMutability": "nonpayable",
      "type": "function"
    },
    {
      "inputs": [
        {
          "internalType": "address",
          "name": "newOwner",
          "type": "address"
        }
      ],
      "name": "transferOwnership",
      "outputs": [],
      "stateMutability": "nonpayable",
      "type": "function"
    },
    {
      "inputs": [
        {
          "internalType": "string",
          "name": "_location",
          "type": "string"
        },
        {
          "internalType": "uint256",
          "name": "_price",
          "type": "uint256"
        }
      ],
      "name": "createProperty",
      "outputs": [],
      "stateMutability": "nonpayable",
      "type": "function"
    },
    {
      "inputs": [
        {
          "internalType": "uint256",
          "name": "_propertyId",
          "type": "uint256"
        }
      ],
      "name": "buyProperty",
      "outputs": [],
      "stateMutability": "payable",
      "type": "function",
      "payable": true
    },
    {
      "inputs": [
        {
          "internalType": "uint256",
          "name": "_propertyId",
          "type": "uint256"
        },
        {
          "internalType": "uint256",
          "name": "_newPrice",
          "type": "uint256"
        }
      ],
      "name": "setPropertyPrice",
      "outputs": [],
      "stateMutability": "nonpayable",
      "type": "function"
    }
  ],
  "bytecode": "0x60806040523480156200001157600080fd5b506040518060400160405280600a81526020017f50726f70657274795632000000000000000000000000000000000000000000008152506040518060400160405280600381526020017f4c5052000000000000000000000000000000000000000000000000000000000081525081600090816200008f91906200042a565b508060019081620000a191906200042a565b505050620000d6620000c1620000dc640100000000026401000000009004565b620000e4640100000000026401000000009004565b62000511565b600033905090565b6000600660009054906101000a900473ffffffffffffffffffffffffffffffffffffffff16905081600660006101000a81548173ffffffffffffffffffffffffffffffffffffffff021916908373ffffffffffffffffffffffffffffffffffffffff1602179055508173ffffffffffffffffffffffffffffffffffffffff168173ffffffffffffffffffffffffffffffffffffffff167f8be0079c531659141344cd1fd0a4f28419497f9722a3daafe3b4186f6b6457e060405160405180910390a35050565b600081519050919050565b7f4e487b7100000000000000000000000000000000000000000000000000000000600052604160045260246000fd5b7f4e487b7100000000000000000000000000000000000000000000000000000000600052602260045260246000fd5b600060028204905060018216806200022c57607f821691505b602082108103620002425762000241620001e4565b5b50919050565b60008190508160005260206000209050919050565b60006020601f8301049050919050565b60008160020a8302905092915050565b600060088302620002af7fffffffffffffffffffffffffffffffffffffffffffffffffffffffffffffffff826200026d565b620002bb86836200026d565b95508019841693508086168417925050509392505050565b6000819050919050565b6000819050919050565b60006200030862000302620002fc84620002d3565b620002dd565b620002d3565b9050919050565b6000819050919050565b6200032483620002e7565b6200033c62000333826200030f565b8484546200027d565b825550505050565b600090565b6200035362000344565b6200036081848462000319565b505050565b5b8181101562000388576200037c60008262000349565b60018101905062000366565b5050565b601f821115620003d757620003a18162000248565b620003ac846200025d565b81016020851015620003bc578190505b620003d4620003cb856200025d565b83018262000365565b50505b505050565b60008160020a8304905092915050565b6000620003ff60001984600802620003dc565b1980831691505092915050565b60006200041a8383620003ec565b9150826002028217905092915050565b6200043582620001aa565b67ffffffffffffffff811115620004515762000450620001b5565b5b6200045d825462000213565b6200046a8282856200038c565b600060209050601f831160018114620004a257600084156200048d578287015190505b6200049985826200040c565b86555062000509565b601f198416620004b28662000248565b60005b82811015620004dc57848901518255600182019150602085019450602081019050620004b5565b86831015620004fc5784890151620004f8601f891682620003ec565b8355505b6001600288020188555050505b505050505050565b61340580620005216000396000f3fe60806040526004361061013c576000357c010000000000000000000000000000000000000000000000000000000090048063715018a6116100bd578063beb8354c11610081578063beb8354c146103df578063c87b56dd14610408578063e985e9c514610445578063f2fde38b14610482578063f7b10808146104ab5761013c565b8063715018a6146103205780638da5cb5b1461033757806395d89b4114610362578063a22cb4651461038d578063b88d4fde146103b65761013c565b806342842e0e1161010457806342842e0e146102385780635a6368ef146102615780636352211e1461028a5780636fa830a6146102c757806370a08231146102e35761013c565b806301ffc9a71461014157806306fdde031461017e578063081812fc146101a9578063095ea7b3146101e657806323b872dd1461020f575b600080fd5b34801561014d57600080fd5b5061016860048036038101906101639190611f75565b6104ea565b6040516101759190611fbd565b60405180910390f35b34801561018a57600080fd5b506101936105cc565b6040516101a09190612068565b60405180910390f35b3480156101b557600080fd5b506101d060048036038101906101cb91906120c0565b61065e565b6040516101dd919061212e565b60405180910390f35b3480156101f257600080fd5b5061020d60048036038101906102089190612175565b6106a4565b005b34801561021b57600080fd5b50610236600480360381019061023191906121b5565b6107bb565b005b34801561024457600080fd5b5061025f600480360381019061025a91906121b5565b61081b565b005b34801561026d57600080fd5b506102886004803603810190610283919061233d565b61083b565b005b34801561029657600080fd5b506102b160048036038101906102ac91906120c0565b61090a565b6040516102be919061212e565b60405180910390f35b6102e160048036038101906102dc91906120c0565b610990565b005b3480156102ef57600080fd5b5061030a60048036038101906103059190612399565b610b5d565b60405161031791906123d5565b60405180910390f35b34801561032c57600080fd5b50610335610c14565b005b34801561034357600080fd5b5061034c610c28565b604051610359919061212e565b60405180910390f35b34801561036e57600080fd5b50610377610c52565b6040516103849190612068565b60405180910390f35b34801561039957600080fd5b506103b460048036038101906103af919061241c565b610ce4565b005b3480156103c257600080fd5b506103dd60048036038101906103d891906124fd565b610cfa565b005b3480156103eb57600080fd5b5061040660048036038101906104019190612580565b610d5c565b005b34801561041457600080fd5b5061042f600480360381019061042a91906120c0565b610df1565b60405161043c9190612068565b60405180910390f35b34801561045157600080fd5b5061046c600480360381019061046791906125c0565b610e59565b6040516104799190611fbd565b60405180910390f35b34801561048e57600080fd5b506104a960048036038101906104a49190612399565b610eed565b005b3480156104b757600080fd5b506104d260048036038101906104cd91906120c0565b610f70565b6040516104e193929190612600565b60405180910390f35b60007f80ac58cd000000000000000000000000000000000000000000000000000000007bffffffffffffffffffffffffffffffffffffffffffffffffffffffff1916827bffffffffffffffffffffffffffffffffffffffffffffffffffffffff191614806105b557507f5b5e139f000000000000000000000000000000000000000000000000000000007bffffffffffffffffffffffffffffffffffffffffffffffffffffffff1916827bffffffffffffffffffffffffffffffffffffffffffffffffffffffff1916145b806105c557506105c482611022565b5b9050919050565b6060600080546105db9061266d565b80601f01602080910402602001604051908101604052809291908181526020018280546106079061266d565b80156106545780601f1061062957610100808354040283529160200191610654565b820191906000526020600020905b81548152906001019060200180831161063757829003601f168201915b5050505050905090565b60006106698261108c565b6004600083815260200190815260200160002060009054906101000a900473ffffffffffffffffffffffffffffffffffffffff169050919050565b60006106af8261090a565b90508073ffffffffffffffffffffffffffffffffffffffff168373ffffffffffffffffffffffffffffffffffffffff160361071f576040517f08c379a000000000000000000000000000000000000000000000000000000000815260040161071690612710565b60405180910390fd5b8073ffffffffffffffffffffffffffffffffffffffff1661073e6110d7565b73ffffffffffffffffffffffffffffffffffffffff16148061076d575061076c816107676110d7565b610e59565b5b6107ac576040517f08c379a00000000000000000000000000000000000000000000000000000000081526004016107a3906127a2565b60405180910390fd5b6107b683836110df565b505050565b6107cc6107c66110d7565b82611198565b61080b576040517f08c379a000000000000000000000000000000000000000000000000000000000815260040161080290612834565b60405180910390fd5b61081683838361122d565b505050565b61083683838360405180602001604052806000815250610cfa565b505050565b610843611526565b61085960016007546115a490919063ffffffff16565b60078190555060006007549050604051806060016040528082815260200184815260200183815250600860008381526020019081526020016000206000820151816000015560208201518160010190816108b39190612a06565b50604082015181600201559050506108cb33826115ba565b807fca5ae189781a447a208f1face1d2a31948bbe025c23d477b54af011fac40916c84846040516108fd929190612ad8565b60405180910390a2505050565b600080610916836117d7565b9050600073ffffffffffffffffffffffffffffffffffffffff168173ffffffffffffffffffffffffffffffffffffffff1603610987576040517f08c379a000000000000000000000000000000000000000000000000000000000815260040161097e90612b54565b60405180910390fd5b80915050919050565b6000600860008381526020019081526020016000209050818160000154146109ed576040517f08c379a00000000000000000000000000000000000000000000000000000000081526004016109e490612bc0565b60405180910390fd5b8060020154341015610a34576040517f08c379a0000000000000000000000000000000000000000000000000000000008152600401610a2b90612c52565b60405180910390fd5b6000610a3f8361090a565b90503373ffffffffffffffffffffffffffffffffffffffff168173ffffffffffffffffffffffffffffffffffffffff1603610aaf576040517f08c379a0000000000000000000000000000000000000000000000000000000008152600401610aa690612cbe565b60405180910390fd5b610aba81338561122d565b8073ffffffffffffffffffffffffffffffffffffffff166108fc83600201549081150290604051600060405180830381858888f19350505050158015610b04573d6000803e3d6000fd5b503373ffffffffffffffffffffffffffffffffffffffff16837ff17a6666765db393a6218bb324c4de5cc60c9ee3b981bd102ba416effc13b8958460020154604051610b5091906123d5565b60405180910390a3505050565b60008073ffffffffffffffffffffffffffffffffffffffff168273ffffffffffffffffffffffffffffffffffffffff1603610bcd576040517f08c379a0000000000000000000000000000000000000000000000000000000008152600401610bc490612d50565b60405180910390fd5b600360008373ffffffffffffffffffffffffffffffffffffffff1673ffffffffffffffffffffffffffffffffffffffff168152602001908152602001600020549050919050565b610c1c611526565b610c266000611814565b565b6000600660009054906101000a900473ffffffffffffffffffffffffffffffffffffffff16905090565b606060018054610c619061266d565b80601f0160208091040260200160405190810160405280929190818152602001828054610c8d9061266d565b8015610cda5780601f10610caf57610100808354040283529160200191610cda565b820191906000526020600020905b815481529060010190602001808311610cbd57829003601f168201915b5050505050905090565b610cf6610cef6110d7565b83836118da565b5050565b610d0b610d056110d7565b83611198565b610d4a576040517f08c379a0000000000000000000000000000000000000000000000000000000008152600401610d4190612834565b60405180910390fd5b610d5684848484611a46565b50505050565b3373ffffffffffffffffffffffffffffffffffffffff16610d7c8361090a565b73ffffffffffffffffffffffffffffffffffffffff1614610dd2576040517f08c379a0000000000000000000000000000000000000000000000000000000008152600401610dc990612de2565b60405180910390fd5b8060086000848152602001908152602001600020600201819055505050565b6060610dfc8261108c565b6000610e06611aa2565b90506000815111610e265760405180602001604052806000815250610e51565b80610e3084611ab9565b604051602001610e41929190612e3e565b6040516020818303038152906040525b915050919050565b6000600560008473ffffffffffffffffffffffffffffffffffffffff1673ffffffffffffffffffffffffffffffffffffffff16815260200190815260200160002060008373ffffffffffffffffffffffffffffffffffffffff1673ffffffffffffffffffffffffffffffffffffffff16815260200190815260200160002060009054906101000a900460ff16905092915050565b610ef5611526565b600073ffffffffffffffffffffffffffffffffffffffff168173ffffffffffffffffffffffffffffffffffffffff1603610f64576040517f08c379a0000000000000000000000000000000000000000000000000000000008152600401610f5b90612ed4565b60405180910390fd5b610f6d81611814565b50565b6008602052806000526040600020600091509050806000015490806001018054610f999061266d565b80601f0160208091040260200160405190810160405280929190818152602001828054610fc59061266d565b80156110125780601f10610fe757610100808354040283529160200191611012565b820191906000526020600020905b815481529060010190602001808311610ff557829003601f168201915b5050505050908060020154905083565b60007f01ffc9a7000000000000000000000000000000000000000000000000000000007bffffffffffffffffffffffffffffffffffffffffffffffffffffffff1916827bffffffffffffffffffffffffffffffffffffffffffffffffffffffff1916149050919050565b61109581611b87565b6110d4576040517f08c379a00000000000000000000000000000000000000000000000000000000081526004016110cb90612b54565b60405180910390fd5b50565b600033905090565b816004600083815260200190815260200160002060006101000a81548173ffffffffffffffffffffffffffffffffffffffff021916908373ffffffffffffffffffffffffffffffffffffffff160217905550808273ffffffffffffffffffffffffffffffffffffffff166111528361090a565b73ffffffffffffffffffffffffffffffffffffffff167f8c5be1e5ebec7d5bd14f71427d1e84f3dd0314c0f7b2291e5b200ac8c7c3b92560405160405180910390a45050565b6000806111a48361090a565b90508073ffffffffffffffffffffffffffffffffffffffff168473ffffffffffffffffffffffffffffffffffffffff1614806111e657506111e58185610e59565b5b8061122457508373ffffffffffffffffffffffffffffffffffffffff1661120c8461065e565b73ffffffffffffffffffffffffffffffffffffffff16145b91505092915050565b8273ffffffffffffffffffffffffffffffffffffffff1661124d8261090a565b73ffffffffffffffffffffffffffffffffffffffff16146112a3576040517f08c379a000000000000000000000000000000000000000000000000000000000815260040161129a90612f66565b60405180910390fd5b600073ffffffffffffffffffffffffffffffffffffffff168273ffffffffffffffffffffffffffffffffffffffff1603611312576040517f08c379a000000000000000000000000000000000000000000000000000000000815260040161130990612ff8565b60405180910390fd5b61131f8383836001611bc8565b8273ffffffffffffffffffffffffffffffffffffffff1661133f8261090a565b73ffffffffffffffffffffffffffffffffffffffff1614611395576040517f08c379a000000000000000000000000000000000000000000000000000000000815260040161138c90612f66565b60405180910390fd5b6004600082815260200190815260200160002060006101000a81549073ffffffffffffffffffffffffffffffffffffffff02191690556001600360008573ffffffffffffffffffffffffffffffffffffffff1673ffffffffffffffffffffffffffffffffffffffff168152602001908152602001600020600082825403925050819055506001600360008473ffffffffffffffffffffffffffffffffffffffff1673ffffffffffffffffffffffffffffffffffffffff16815260200190815260200160002060008282540192505081905550816002600083815260200190815260200160002060006101000a81548173ffffffffffffffffffffffffffffffffffffffff021916908373ffffffffffffffffffffffffffffffffffffffff160217905550808273ffffffffffffffffffffffffffffffffffffffff168473ffffffffffffffffffffffffffffffffffffffff167fddf252ad1be2c89b69c2b068fc378daa952ba7f163c4a11628f55a4df523b3ef60405160405180910390a46115218383836001611bce565b505050565b61152e6110d7565b73ffffffffffffffffffffffffffffffffffffffff1661154c610c28565b73ffffffffffffffffffffffffffffffffffffffff16146115a2576040517f08c379a000000000000000000000000000000000000000000000000000000000815260040161159990613064565b60405180910390fd5b565b600081836115b291906130b3565b905092915050565b600073ffffffffffffffffffffffffffffffffffffffff168273ffffffffffffffffffffffffffffffffffffffff1603611629576040517f08c379a000000000000000000000000000000000000000000000000000000000815260040161162090613133565b60405180910390fd5b61163281611b87565b15611672576040517f08c379a00000000000000000000000000000000000000000000000000000000081526004016116699061319f565b60405180910390fd5b611680600083836001611bc8565b61168981611b87565b156116c9576040517f08c379a00000000000000000000000000000000000000000000000000000000081526004016116c09061319f565b60405180910390fd5b6001600360008473ffffffffffffffffffffffffffffffffffffffff1673ffffffffffffffffffffffffffffffffffffffff16815260200190815260200160002060008282540192505081905550816002600083815260200190815260200160002060006101000a81548173ffffffffffffffffffffffffffffffffffffffff021916908373ffffffffffffffffffffffffffffffffffffffff160217905550808273ffffffffffffffffffffffffffffffffffffffff16600073ffffffffffffffffffffffffffffffffffffffff167fddf252ad1be2c89b69c2b068fc378daa952ba7f163c4a11628f55a4df523b3ef60405160405180910390a46117d3600083836001611bce565b5050565b60006002600083815260200190815260200160002060009054906101000a900473ffffffffffffffffffffffffffffffffffffffff169050919050565b6000600660009054906101000a900473ffffffffffffffffffffffffffffffffffffffff16905081600660006101000a81548173ffffffffffffffffffffffffffffffffffffffff021916908373ffffffffffffffffffffffffffffffffffffffff1602179055508173ffffffffffffffffffffffffffffffffffffffff168173ffffffffffffffffffffffffffffffffffffffff167f8be0079c531659141344cd1fd0a4f28419497f9722a3daafe3b4186f6b6457e060405160405180910390a35050565b8173ffffffffffffffffffffffffffffffffffffffff168373ffffffffffffffffffffffffffffffffffffffff1603611948576040517f08c379a000000000000000000000000000000000000000000000000000000000815260040161193f9061320b565b60405180910390fd5b80600560008573ffffffffffffffffffffffffffffffffffffffff1673ffffffffffffffffffffffffffffffffffffffff16815260200190815260200160002060008473ffffffffffffffffffffffffffffffffffffffff1673ffffffffffffffffffffffffffffffffffffffff16815260200190815260200160002060006101000a81548160ff0219169083151502179055508173ffffffffffffffffffffffffffffffffffffffff168373ffffffffffffffffffffffffffffffffffffffff167f17307eab39ab6107e8899845ad3d59bd9653f200f220920489ca2b5937696c3183604051611a399190611fbd565b60405180910390a3505050565b611a5184848461122d565b611a5d84848484611bd4565b611a9c576040517f08c379a0000000000000000000000000000000000000000000000000000000008152600401611a939061329d565b60405180910390fd5b50505050565b606060405180602001604052806000815250905090565b606060006001611ac884611d93565b01905060008167ffffffffffffffff811115611ae757611ae6612212565b5b6040519080825280601f01601f191660200182016040528015611b195781602001600182028036833780820191505090505b509050600082602001820190505b600115611b7c578080600190039150507f3031323334353637383961626364656600000000000000000000000000000000600a86061a8153600a8581611b7057611b6f6132bd565b5b04945060008503611b27575b819350505050919050565b60008073ffffffffffffffffffffffffffffffffffffffff16611ba9836117d7565b73ffffffffffffffffffffffffffffffffffffffff1614159050919050565b50505050565b50505050565b6000611bf58473ffffffffffffffffffffffffffffffffffffffff16611ee6565b15611d86578373ffffffffffffffffffffffffffffffffffffffff1663150b7a02611c1e6110d7565b8786866040518563ffffffff167c0100000000000000000000000000000000000000000000000000000000028152600401611c5c9493929190613341565b6020604051808303816000875af1925050508015611c9857506040513d601f19601f82011682018060405250810190611c9591906133a2565b60015b611d1a573d8060008114611cc8576040519150601f19603f3d011682016040523d82523d6000602084013e611ccd565b606091505b506000815103611d12576040517f08c379a0000000000000000000000000000000000000000000000000000000008152600401611d099061329d565b60405180910390fd5b805181602001fd5b63150b7a027c0100000000000000000000000000000000000000000000000000000000027bffffffffffffffffffffffffffffffffffffffffffffffffffffffff1916817bffffffffffffffffffffffffffffffffffffffffffffffffffffffff191614915050611d8b565b600190505b949350505050565b600080600090507a184f03e93ff9f4daa797ed6e38ed64bf6a1f0100000000000000008310611df1577a184f03e93ff9f4daa797ed6e38ed64bf6a1f0100000000000000008381611de757611de66132bd565b5b0492506040810190505b6d04ee2d6d415b85acef81000000008310611e2e576d04ee2d6d415b85acef81000000008381611e2457611e236132bd565b5b0492506020810190505b662386f26fc100008310611e5d57662386f26fc100008381611e5357611e526132bd565b5b0492506010810190505b6305f5e1008310611e86576305f5e1008381611e7c57611e7b6132bd565b5b0492506008810190505b6127108310611eab576127108381611ea157611ea06132bd565b5b0492506004810190505b60648310611ece5760648381611ec457611ec36132bd565b5b0492506002810190505b600a8310611edd576001810190505b80915050919050565b6000808273ffffffffffffffffffffffffffffffffffffffff163b119050919050565b6000604051905090565b600080fd5b600080fd5b60007fffffffff0000000000000000000000000000000000000000000000000000000082169050919050565b611f5281611f1d565b8114611f5d57600080fd5b50565b600081359050611f6f81611f49565b92915050565b600060208284031215611f8b57611f8a611f13565b5b6000611f9984828501611f60565b91505092915050565b60008115159050919050565b611fb781611fa2565b82525050565b6000602082019050611fd26000830184611fae565b92915050565b600081519050919050565b600082825260208201905092915050565b60005b83811015612012578082015181840152602081019050611ff7565b60008484015250505050565b6000601f19601f8301169050919050565b600061203a82611fd8565b6120448185611fe3565b9350612054818560208601611ff4565b61205d8161201e565b840191505092915050565b60006020820190508181036000830152612082818461202f565b905092915050565b6000819050919050565b61209d8161208a565b81146120a857600080fd5b50565b6000813590506120ba81612094565b92915050565b6000602082840312156120d6576120d5611f13565b5b60006120e4848285016120ab565b91505092915050565b600073ffffffffffffffffffffffffffffffffffffffff82169050919050565b6000612118826120ed565b9050919050565b6121288161210d565b82525050565b6000602082019050612143600083018461211f565b92915050565b6121528161210d565b811461215d57600080fd5b50565b60008135905061216f81612149565b92915050565b6000806040838503121561218c5761218b611f13565b5b600061219a85828601612160565b92505060206121ab858286016120ab565b9150509250929050565b6000806000606084860312156121ce576121cd611f13565b5b60006121dc86828701612160565b93505060206121ed86828701612160565b92505060406121fe868287016120ab565b9150509250925092565b600080fd5b600080fd5b7f4e487b7100000000000000000000000000000000000000000000000000000000600052604160045260246000fd5b61224a8261201e565b810181811067ffffffffffffffff8211171561226957612268612212565b5b80604052505050565b600061227c611f09565b90506122888282612241565b919050565b600067ffffffffffffffff8211156122a8576122a7612212565b5b6122b18261201e565b9050602081019050919050565b82818337600083830152505050565b60006122e06122db8461228d565b612272565b9050828152602081018484840111156122fc576122fb61220d565b5b6123078482856122be565b509392505050565b600082601f83011261232457612323612208565b5b81356123348482602086016122cd565b91505092915050565b6000806040838503121561235457612353611f13565b5b600083013567ffffffffffffffff81111561237257612371611f18565b5b61237e8582860161230f565b925050602061238f858286016120ab565b9150509250929050565b6000602082840312156123af576123ae611f13565b5b60006123bd84828501612160565b91505092915050565b6123cf8161208a565b82525050565b60006020820190506123ea60008301846123c6565b92915050565b6123f981611fa2565b811461240457600080fd5b50565b600081359050612416816123f0565b92915050565b6000806040838503121561243357612432611f13565b5b600061244185828601612160565b925050602061245285828601612407565b9150509250929050565b600067ffffffffffffffff82111561247757612476612212565b5b6124808261201e565b9050602081019050919050565b60006124a061249b8461245c565b612272565b9050828152602081018484840111156124bc576124bb61220d565b5b6124c78482856122be565b509392505050565b600082601f8301126124e4576124e3612208565b5b81356124f484826020860161248d565b91505092915050565b6000806000806080858703121561251757612516611f13565b5b600061252587828801612160565b945050602061253687828801612160565b9350506040612547878288016120ab565b925050606085013567ffffffffffffffff81111561256857612567611f18565b5b612574878288016124cf565b91505092959194509250565b6000806040838503121561259757612596611f13565b5b60006125a5858286016120ab565b92505060206125b6858286016120ab565b9150509250929050565b600080604083850312156125d7576125d6611f13565b5b60006125e585828601612160565b92505060206125f685828601612160565b9150509250929050565b600060608201905061261560008301866123c6565b8181036020830152612627818561202f565b905061263660408301846123c6565b949350505050565b7f4e487b7100000000000000000000000000000000000000000000000000000000600052602260045260246000fd5b6000600282049050600182168061268557607f821691505b6020821081036126985761269761263e565b5b50919050565b7f4552433732313a20617070726f76616c20746f2063757272656e74206f776e6560008201527f7200000000000000000000000000000000000000000000000000000000000000602082015250565b60006126fa602183611fe3565b91506127058261269e565b604082019050919050565b60006020820190508181036000830152612729816126ed565b9050919050565b7f4552433732313a20617070726f76652063616c6c6572206973206e6f7420746f60008201527f6b656e206f776e6572206f7220617070726f76656420666f7220616c6c000000602082015250565b600061278c603d83611fe3565b915061279782612730565b604082019050919050565b600060208201905081810360008301526127bb8161277f565b9050919050565b7f4552433732313a2063616c6c6572206973206e6f7420746f6b656e206f776e6560008201527f72206f7220617070726f76656400000000000000000000000000000000000000602082015250565b600061281e602d83611fe3565b9150612829826127c2565b604082019050919050565b6000602082019050818103600083015261284d81612811565b9050919050565b60008190508160005260206000209050919050565b60006020601f8301049050919050565b60008160020a8302905092915050565b6000600883026128b97fffffffffffffffffffffffffffffffffffffffffffffffffffffffffffffffff82612879565b6128c38683612879565b95508019841693508086168417925050509392505050565b6000819050919050565b60006129006128fb6128f68461208a565b6128db565b61208a565b9050919050565b6000819050919050565b61291a836128e5565b61292e61292682612907565b848454612889565b825550505050565b600090565b612943612936565b61294e818484612911565b505050565b5b818110156129725761296760008261293b565b600181019050612954565b5050565b601f8211156129b75761298881612854565b61299184612869565b810160208510156129a0578190505b6129b46129ac85612869565b830182612953565b50505b505050565b60008160020a8304905092915050565b60006129dd600019846008026129bc565b1980831691505092915050565b60006129f683836129cc565b9150826002028217905092915050565b612a0f82611fd8565b67ffffffffffffffff811115612a2857612a27612212565b5b612a32825461266d565b612a3d828285612976565b600060209050601f831160018114612a705760008415612a5e578287015190505b612a6885826129ea565b865550612ad0565b601f198416612a7e86612854565b60005b82811015612aa657848901518255600182019150602085019450602081019050612a81565b86831015612ac35784890151612abf601f8916826129cc565b8355505b6001600288020188555050505b505050505050565b60006040820190508181036000830152612af2818561202f565b9050612b0160208301846123c6565b9392505050565b7f4552433732313a20696e76616c696420746f6b656e2049440000000000000000600082015250565b6000612b3e601883611fe3565b9150612b4982612b08565b602082019050919050565b60006020820190508181036000830152612b6d81612b31565b9050919050565b7f50726f706572747920646f6573206e6f74206578697374000000000000000000600082015250565b6000612baa601783611fe3565b9150612bb582612b74565b602082019050919050565b60006020820190508181036000830152612bd981612b9d565b9050919050565b7f496e73756666696369656e742066756e647320746f206275792074686520707260008201527f6f70657274790000000000000000000000000000000000000000000000000000602082015250565b6000612c3c602683611fe3565b9150612c4782612be0565b604082019050919050565b60006020820190508181036000830152612c6b81612c2f565b9050919050565b7f596f7520616c7265616479206f776e20746869732070726f7065727479000000600082015250565b6000612ca8601d83611fe3565b9150612cb382612c72565b602082019050919050565b60006020820190508181036000830152612cd781612c9b565b9050919050565b7f4552433732313a2061646472657373207a65726f206973206e6f74206120766160008201527f6c6964206f776e65720000000000000000000000000000000000000000000000602082015250565b6000612d3a602983611fe3565b9150612d4582612cde565b604082019050919050565b60006020820190508181036000830152612d6981612d2d565b9050919050565b7f596f7520617265206e6f7420746865206f776e6572206f66207468697320707260008201527f6f70657274790000000000000000000000000000000000000000000000000000602082015250565b6000612dcc602683611fe3565b9150612dd782612d70565b604082019050919050565b60006020820190508181036000830152612dfb81612dbf565b9050919050565b600081905092915050565b6000612e1882611fd8565b612e228185612e02565b9350612e32818560208601611ff4565b80840191505092915050565b6000612e4a8285612e0d565b9150612e568284612e0d565b91508190509392505050565b7f4f776e61626c653a206e6577206f776e657220697320746865207a65726f206160008201527f6464726573730000000000000000000000000000000000000000000000000000602082015250565b6000612ebe602683611fe3565b9150612ec982612e62565b604082019050919050565b60006020820190508181036000830152612eed81612eb1565b9050919050565b7f4552433732313a207472616e736665722066726f6d20696e636f72726563742060008201527f6f776e6572000000000000000000000000000000000000000000000000000000602082015250565b6000612f50602583611fe3565b9150612f5b82612ef4565b604082019050919050565b60006020820190508181036000830152612f7f81612f43565b9050919050565b7f4552433732313a207472616e7366657220746f20746865207a65726f2061646460008201527f7265737300000000000000000000000000000000000000000000000000000000602082015250565b6000612fe2602483611fe3565b9150612fed82612f86565b604082019050919050565b6000602082019050818103600083015261301181612fd5565b9050919050565b7f4f776e61626c653a2063616c6c6572206973206e6f7420746865206f776e6572600082015250565b600061304e602083611fe3565b915061305982613018565b602082019050919050565b6000602082019050818103600083015261307d81613041565b9050919050565b7f4e487b7100000000000000000000000000000000000000000000000000000000600052601160045260246000fd5b60006130be8261208a565b91506130c98361208a565b92508282019050808211156130e1576130e0613084565b5b92915050565b7f4552433732313a206d696e7420746f20746865207a65726f2061646472657373600082015250565b600061311d602083611fe3565b9150613128826130e7565b602082019050919050565b6000602082019050818103600083015261314c81613110565b9050919050565b7f4552433732313a20746f6b656e20616c7265616479206d696e74656400000000600082015250565b6000613189601c83611fe3565b915061319482613153565b602082019050919050565b600060208201905081810360008301526131b88161317c565b9050919050565b7f4552433732313a20617070726f766520746f2063616c6c657200000000000000600082015250565b60006131f5601983611fe3565b9150613200826131bf565b602082019050919050565b60006020820190508181036000830152613224816131e8565b9050919050565b7f4552433732313a207472616e7366657220746f206e6f6e20455243373231526560008201527f63656976657220696d706c656d656e7465720000000000000000000000000000602082015250565b6000613287603283611fe3565b91506132928261322b565b604082019050919050565b600060208201905081810360008301526132b68161327a565b9050919050565b7f4e487b7100000000000000000000000000000000000000000000000000000000600052601260045260246000fd5b600081519050919050565b600082825260208201905092915050565b6000613313826132ec565b61331d81856132f7565b935061332d818560208601611ff4565b6133368161201e565b840191505092915050565b6000608082019050613356600083018761211f565b613363602083018661211f565b61337060408301856123c6565b81810360608301526133828184613308565b905095945050505050565b60008151905061339c81611f49565b92915050565b6000602082840312156133b8576133b7611f13565b5b60006133c68482850161338d565b9150509291505056fea2646970667358221220d461635586eb9eadf0e81e7069dc6102ac532f62f5142dc2aa98d220e044ca7964736f6c63430008110033",
  "immutableReferences": {},
  "source": "// SPDX-License-Identifier: MIT\npragma solidity ^0.8.17;\n\nimport \"@openzeppelin/contracts/token/ERC721/ERC721.sol\";\nimport \"@openzeppelin/contracts/access/Ownable.sol\";\nimport \"@openzeppelin/contracts/utils/math/SafeMath.sol\";\n\ncontract PropertyV2 is ERC721, Ownable {\n    using SafeMath for uint256;\n\n    struct Property {\n        uint256 id;\n        string location;\n        uint256 price;\n    }\n\n    uint256 private _propertyIdCounter;\n    mapping(uint256 => Property) public properties;\n\n    event PropertyCreated(uint256 indexed propertyId, string location, uint256 price);\n    event PropertySold(uint256 indexed propertyId, address indexed buyer, uint256 price);\n\n    constructor() ERC721(\"PropertyV2\", \"LPR\") {}\n\n    function createProperty(string memory _location, uint256 _price) public onlyOwner {\n        _propertyIdCounter = _propertyIdCounter.add(1);\n        uint256 newPropertyId = _propertyIdCounter;\n\n        properties[newPropertyId] = Property(newPropertyId, _location, _price);\n        _mint(msg.sender, newPropertyId);\n\n        emit PropertyCreated(newPropertyId, _location, _price);\n    }\n\n    function buyProperty(uint256 _propertyId) public payable {\n        Property storage property = properties[_propertyId];\n        require(property.id == _propertyId, \"Property does not exist\");\n        require(msg.value >= property.price, \"Insufficient funds to buy the property\");\n\n        address propertyOwner = ownerOf(_propertyId);\n        require(propertyOwner != msg.sender, \"You already own this property\");\n\n        _transfer(propertyOwner, msg.sender, _propertyId);\n        payable(propertyOwner).transfer(property.price);\n\n        emit PropertySold(_propertyId, msg.sender, property.price);\n    }\n\n    function setPropertyPrice(uint256 _propertyId, uint256 _newPrice) public {\n        require(ownerOf(_propertyId) == msg.sender, \"You are not the owner of this property\");\n        properties[_propertyId].price = _newPrice;\n    }\n}",
  "sourcePath": "/Users/siddhantprateek/Documents/originlab/polychain/contracts/Propertyv2.sol",
  "compiler": {
    "name": "solc",
    "version": "0.8.17+commit.8df45f5f.Emscripten.clang"
  },
  "schemaVersion": "3.4.14",
  "updatedAt": "2023-06-18T18:34:07.965Z",
  "networkType": "ethereum",
  "devdoc": {
    "kind": "dev",
    "methods": {
      "approve(address,uint256)": {
        "details": "See {IERC721-approve}."
      },
      "balanceOf(address)": {
        "details": "See {IERC721-balanceOf}."
      },
      "getApproved(uint256)": {
        "details": "See {IERC721-getApproved}."
      },
      "isApprovedForAll(address,address)": {
        "details": "See {IERC721-isApprovedForAll}."
      },
      "name()": {
        "details": "See {IERC721Metadata-name}."
      },
      "owner()": {
        "details": "Returns the address of the current owner."
      },
      "ownerOf(uint256)": {
        "details": "See {IERC721-ownerOf}."
      },
      "renounceOwnership()": {
        "details": "Leaves the contract without owner. It will not be possible to call `onlyOwner` functions. Can only be called by the current owner. NOTE: Renouncing ownership will leave the contract without an owner, thereby disabling any functionality that is only available to the owner."
      },
      "safeTransferFrom(address,address,uint256)": {
        "details": "See {IERC721-safeTransferFrom}."
      },
      "safeTransferFrom(address,address,uint256,bytes)": {
        "details": "See {IERC721-safeTransferFrom}."
      },
      "setApprovalForAll(address,bool)": {
        "details": "See {IERC721-setApprovalForAll}."
      },
      "supportsInterface(bytes4)": {
        "details": "See {IERC165-supportsInterface}."
      },
      "symbol()": {
        "details": "See {IERC721Metadata-symbol}."
      },
      "tokenURI(uint256)": {
        "details": "See {IERC721Metadata-tokenURI}."
      },
      "transferFrom(address,address,uint256)": {
        "details": "See {IERC721-transferFrom}."
      },
      "transferOwnership(address)": {
        "details": "Transfers ownership of the contract to a new account (`newOwner`). Can only be called by the current owner."
      }
    },
    "version": 1
  },
  "userdoc": {
    "kind": "user",
    "methods": {},
    "version": 1
  }
}