{
  "contractName": "Property",
  "abi": [
    {
      "inputs": [],
      "stateMutability": "nonpayable",
      "type": "constructor"
    },
    {
      "anonymous": false,
      "inputs": [
        {
          "indexed": true,
          "internalType": "address",
          "name": "owner",
          "type": "address"
        },
        {
          "indexed": true,
          "internalType": "address",
          "name": "approved",
          "type": "address"
        },
        {
          "indexed": true,
          "internalType": "uint256",
          "name": "tokenId",
          "type": "uint256"
        }
      ],
      "name": "Approval",
      "type": "event"
    },
    {
      "anonymous": false,
      "inputs": [
        {
          "indexed": true,
          "internalType": "address",
          "name": "owner",
          "type": "address"
        },
        {
          "indexed": true,
          "internalType": "address",
          "name": "operator",
          "type": "address"
        },
        {
          "indexed": false,
          "internalType": "bool",
          "name": "approved",
          "type": "bool"
        }
      ],
      "name": "ApprovalForAll",
      "type": "event"
    },
    {
      "anonymous": false,
      "inputs": [
        {
          "indexed": true,
          "internalType": "uint256",
          "name": "propertyId",
          "type": "uint256"
        },
        {
          "indexed": true,
          "internalType": "address",
          "name": "nominee",
          "type": "address"
        }
      ],
      "name": "Nominated",
      "type": "event"
    },
    {
      "anonymous": false,
      "inputs": [
        {
          "indexed": true,
          "internalType": "address",
          "name": "previousOwner",
          "type": "address"
        },
        {
          "indexed": true,
          "internalType": "address",
          "name": "newOwner",
          "type": "address"
        }
      ],
      "name": "OwnershipTransferred",
      "type": "event"
    },
    {
      "anonymous": false,
      "inputs": [
        {
          "indexed": true,
          "internalType": "uint256",
          "name": "propertyId",
          "type": "uint256"
        },
        {
          "indexed": false,
          "internalType": "string",
          "name": "location",
          "type": "string"
        },
        {
          "indexed": false,
          "internalType": "uint256",
          "name": "price",
          "type": "uint256"
        }
      ],
      "name": "PropertyCreated",
      "type": "event"
    },
    {
      "anonymous": false,
      "inputs": [
        {
          "indexed": true,
          "internalType": "uint256",
          "name": "propertyId",
          "type": "uint256"
        },
        {
          "indexed": true,
          "internalType": "address",
          "name": "buyer",
          "type": "address"
        },
        {
          "indexed": false,
          "internalType": "uint256",
          "name": "price",
          "type": "uint256"
        }
      ],
      "name": "PropertySold",
      "type": "event"
    },
    {
      "anonymous": false,
      "inputs": [
        {
          "indexed": true,
          "internalType": "uint256",
          "name": "propertyId",
          "type": "uint256"
        },
        {
          "indexed": true,
          "internalType": "address",
          "name": "buyer",
          "type": "address"
        }
      ],
      "name": "PropertyTransfered",
      "type": "event"
    },
    {
      "anonymous": false,
      "inputs": [
        {
          "indexed": true,
          "internalType": "uint256",
          "name": "propertyId",
          "type": "uint256"
        },
        {
          "indexed": true,
          "internalType": "address",
          "name": "owner",
          "type": "address"
        },
        {
          "indexed": false,
          "internalType": "uint256",
          "name": "shares",
          "type": "uint256"
        }
      ],
      "name": "SharedOwnerUpdate",
      "type": "event"
    },
    {
      "anonymous": false,
      "inputs": [
        {
          "indexed": true,
          "internalType": "address",
          "name": "from",
          "type": "address"
        },
        {
          "indexed": true,
          "internalType": "address",
          "name": "to",
          "type": "address"
        },
        {
          "indexed": true,
          "internalType": "uint256",
          "name": "tokenId",
          "type": "uint256"
        }
      ],
      "name": "Transfer",
      "type": "event"
    },
    {
      "anonymous": false,
      "inputs": [
        {
          "indexed": true,
          "internalType": "uint256",
          "name": "propertyId",
          "type": "uint256"
        },
        {
          "indexed": false,
          "internalType": "uint256",
          "name": "new_price",
          "type": "uint256"
        }
      ],
      "name": "UpdatePrice",
      "type": "event"
    },
    {
      "inputs": [
        {
          "internalType": "address",
          "name": "to",
          "type": "address"
        },
        {
          "internalType": "uint256",
          "name": "tokenId",
          "type": "uint256"
        }
      ],
      "name": "approve",
      "outputs": [],
      "stateMutability": "nonpayable",
      "type": "function"
    },
    {
      "inputs": [
        {
          "internalType": "address",
          "name": "owner",
          "type": "address"
        }
      ],
      "name": "balanceOf",
      "outputs": [
        {
          "internalType": "uint256",
          "name": "",
          "type": "uint256"
        }
      ],
      "stateMutability": "view",
      "type": "function"
    },
    {
      "inputs": [
        {
          "internalType": "uint256",
          "name": "tokenId",
          "type": "uint256"
        }
      ],
      "name": "getApproved",
      "outputs": [
        {
          "internalType": "address",
          "name": "",
          "type": "address"
        }
      ],
      "stateMutability": "view",
      "type": "function"
    },
    {
      "inputs": [
        {
          "internalType": "address",
          "name": "owner",
          "type": "address"
        },
        {
          "internalType": "address",
          "name": "operator",
          "type": "address"
        }
      ],
      "name": "isApprovedForAll",
      "outputs": [
        {
          "internalType": "bool",
          "name": "",
          "type": "bool"
        }
      ],
      "stateMutability": "view",
      "type": "function"
    },
    {
      "inputs": [],
      "name": "name",
      "outputs": [
        {
          "internalType": "string",
          "name": "",
          "type": "string"
        }
      ],
      "stateMutability": "view",
      "type": "function"
    },
    {
      "inputs": [],
      "name": "owner",
      "outputs": [
        {
          "internalType": "address",
          "name": "",
          "type": "address"
        }
      ],
      "stateMutability": "view",
      "type": "function"
    },
    {
      "inputs": [
        {
          "internalType": "uint256",
          "name": "tokenId",
          "type": "uint256"
        }
      ],
      "name": "ownerOf",
      "outputs": [
        {
          "internalType": "address",
          "name": "",
          "type": "address"
        }
      ],
      "stateMutability": "view",
      "type": "function"
    },
    {
      "inputs": [
        {
          "internalType": "uint256",
          "name": "",
          "type": "uint256"
        }
      ],
      "name": "properties",
      "outputs": [
        {
          "internalType": "uint256",
          "name": "propertyId",
          "type": "uint256"
        },
        {
          "internalType": "string",
          "name": "location",
          "type": "string"
        },
        {
          "internalType": "uint256",
          "name": "price",
          "type": "uint256"
        }
      ],
      "stateMutability": "view",
      "type": "function"
    },
    {
      "inputs": [],
      "name": "renounceOwnership",
      "outputs": [],
      "stateMutability": "nonpayable",
      "type": "function"
    },
    {
      "inputs": [
        {
          "internalType": "address",
          "name": "from",
          "type": "address"
        },
        {
          "internalType": "address",
          "name": "to",
          "type": "address"
        },
        {
          "internalType": "uint256",
          "name": "tokenId",
          "type": "uint256"
        }
      ],
      "name": "safeTransferFrom",
      "outputs": [],
      "stateMutability": "nonpayable",
      "type": "function"
    },
    {
      "inputs": [
        {
          "internalType": "address",
          "name": "from",
          "type": "address"
        },
        {
          "internalType": "address",
          "name": "to",
          "type": "address"
        },
        {
          "internalType": "uint256",
          "name": "tokenId",
          "type": "uint256"
        },
        {
          "internalType": "bytes",
          "name": "data",
          "type": "bytes"
        }
      ],
      "name": "safeTransferFrom",
      "outputs": [],
      "stateMutability": "nonpayable",
      "type": "function"
    },
    {
      "inputs": [
        {
          "internalType": "address",
          "name": "operator",
          "type": "address"
        },
        {
          "internalType": "bool",
          "name": "approved",
          "type": "bool"
        }
      ],
      "name": "setApprovalForAll",
      "outputs": [],
      "stateMutability": "nonpayable",
      "type": "function"
    },
    {
      "inputs": [
        {
          "internalType": "bytes4",
          "name": "interfaceId",
          "type": "bytes4"
        }
      ],
      "name": "supportsInterface",
      "outputs": [
        {
          "internalType": "bool",
          "name": "",
          "type": "bool"
        }
      ],
      "stateMutability": "view",
      "type": "function"
    },
    {
      "inputs": [],
      "name": "symbol",
      "outputs": [
        {
          "internalType": "string",
          "name": "",
          "type": "string"
        }
      ],
      "stateMutability": "view",
      "type": "function"
    },
    {
      "inputs": [
        {
          "internalType": "uint256",
          "name": "tokenId",
          "type": "uint256"
        }
      ],
      "name": "tokenURI",
      "outputs": [
        {
          "internalType": "string",
          "name": "",
          "type": "string"
        }
      ],
      "stateMutability": "view",
      "type": "function"
    },
    {
      "inputs": [
        {
          "internalType": "address",
          "name": "from",
          "type": "address"
        },
        {
          "internalType": "address",
          "name": "to",
          "type": "address"
        },
        {
          "internalType": "uint256",
          "name": "tokenId",
          "type": "uint256"
        }
      ],
      "name": "transferFrom",
      "outputs": [],
      "stateMutability": "nonpayable",
      "type": "function"
    },
    {
      "inputs": [
        {
          "internalType": "address",
          "name": "newOwner",
          "type": "address"
        }
      ],
      "name": "transferOwnership",
      "outputs": [],
      "stateMutability": "nonpayable",
      "type": "function"
    },
    {
      "inputs": [],
      "name": "SetProperty",
      "outputs": [],
      "stateMutability": "nonpayable",
      "type": "function"
    },
    {
      "inputs": [],
      "name": "TransferOwnership",
      "outputs": [],
      "stateMutability": "nonpayable",
      "type": "function"
    },
    {
      "inputs": [
        {
          "internalType": "string",
          "name": "_location",
          "type": "string"
        },
        {
          "internalType": "uint256",
          "name": "_price",
          "type": "uint256"
        }
      ],
      "name": "CreateProperty",
      "outputs": [],
      "stateMutability": "nonpayable",
      "type": "function"
    },
    {
      "inputs": [
        {
          "internalType": "uint256",
          "name": "_propertyId",
          "type": "uint256"
        }
      ],
      "name": "BuyProperty",
      "outputs": [],
      "stateMutability": "payable",
      "type": "function"
    },
    {
      "inputs": [],
      "name": "PropertyAvailability",
      "outputs": [],
      "stateMutability": "nonpayable",
      "type": "function"
    },
    {
      "inputs": [],
      "name": "PropertyNominee",
      "outputs": [],
      "stateMutability": "nonpayable",
      "type": "function"
    },
    {
      "inputs": [],
      "name": "SharedOwnerShip",
      "outputs": [],
      "stateMutability": "nonpayable",
      "type": "function"
    },
    {
      "inputs": [],
      "name": "GetOwnerhipPercentage",
      "outputs": [],
      "stateMutability": "nonpayable",
      "type": "function"
    },
    {
      "inputs": [],
      "name": "UpdateSharedOwner",
      "outputs": [],
      "stateMutability": "nonpayable",
      "type": "function"
    }
  ],
  "bytecode": "0x60806040523480156200001157600080fd5b506040518060400160405280600d81526020017f4c616e644f776e657273686970000000000000000000000000000000000000008152506040518060400160405280600381526020017f4c5253000000000000000000000000000000000000000000000000000000000081525081600090816200008f91906200042a565b508060019081620000a191906200042a565b505050620000d6620000c1620000dc640100000000026401000000009004565b620000e4640100000000026401000000009004565b62000511565b600033905090565b6000600660009054906101000a900473ffffffffffffffffffffffffffffffffffffffff16905081600660006101000a81548173ffffffffffffffffffffffffffffffffffffffff021916908373ffffffffffffffffffffffffffffffffffffffff1602179055508173ffffffffffffffffffffffffffffffffffffffff168173ffffffffffffffffffffffffffffffffffffffff167f8be0079c531659141344cd1fd0a4f28419497f9722a3daafe3b4186f6b6457e060405160405180910390a35050565b600081519050919050565b7f4e487b7100000000000000000000000000000000000000000000000000000000600052604160045260246000fd5b7f4e487b7100000000000000000000000000000000000000000000000000000000600052602260045260246000fd5b600060028204905060018216806200022c57607f821691505b602082108103620002425762000241620001e4565b5b50919050565b60008190508160005260206000209050919050565b60006020601f8301049050919050565b60008160020a8302905092915050565b600060088302620002af7fffffffffffffffffffffffffffffffffffffffffffffffffffffffffffffffff826200026d565b620002bb86836200026d565b95508019841693508086168417925050509392505050565b6000819050919050565b6000819050919050565b60006200030862000302620002fc84620002d3565b620002dd565b620002d3565b9050919050565b6000819050919050565b6200032483620002e7565b6200033c62000333826200030f565b8484546200027d565b825550505050565b600090565b6200035362000344565b6200036081848462000319565b505050565b5b8181101562000388576200037c60008262000349565b60018101905062000366565b5050565b601f821115620003d757620003a18162000248565b620003ac846200025d565b81016020851015620003bc578190505b620003d4620003cb856200025d565b83018262000365565b50505b505050565b60008160020a8304905092915050565b6000620003ff60001984600802620003dc565b1980831691505092915050565b60006200041a8383620003ec565b9150826002028217905092915050565b6200043582620001aa565b67ffffffffffffffff811115620004515762000450620001b5565b5b6200045d825462000213565b6200046a8282856200038c565b600060209050601f831160018114620004a257600084156200048d578287015190505b6200049985826200040c565b86555062000509565b601f198416620004b28662000248565b60005b82811015620004dc57848901518255600182019150602085019450602081019050620004b5565b86831015620004fc5784890151620004f8601f891682620003ec565b8355505b6001600288020188555050505b505050505050565b61336580620005216000396000f3fe60806040526004361061019e576000357c0100000000000000000000000000000000000000000000000000000000900480638da5cb5b116100ee578063d5b4aa17116100a7578063f19e3b1c11610081578063f19e3b1c1461051c578063f2fde38b14610533578063f4650d581461055c578063f7b10808146105855761019e565b8063d5b4aa17146104b1578063dcfd0c91146104c8578063e985e9c5146104df5761019e565b80638da5cb5b146103b557806395d89b41146103e0578063a22cb4651461040b578063b35966f414610434578063b88d4fde1461044b578063c87b56dd146104745761019e565b806323b872dd1161015b57806347ebf4661161013557806347ebf4661461030d5780636352211e1461032457806370a0823114610361578063715018a61461039e5761019e565b806323b872dd1461029f57806325a59600146102c857806342842e0e146102e45761019e565b806301ffc9a7146101a3578063023f1a34146101e057806303a33548146101f757806306fdde031461020e578063081812fc14610239578063095ea7b314610276575b600080fd5b3480156101af57600080fd5b506101ca60048036038101906101c59190611f51565b6105c4565b6040516101d79190611f99565b60405180910390f35b3480156101ec57600080fd5b506101f56106a6565b005b34801561020357600080fd5b5061020c6106a8565b005b34801561021a57600080fd5b506102236106aa565b6040516102309190612044565b60405180910390f35b34801561024557600080fd5b50610260600480360381019061025b919061209c565b61073c565b60405161026d919061210a565b60405180910390f35b34801561028257600080fd5b5061029d60048036038101906102989190612151565b610782565b005b3480156102ab57600080fd5b506102c660048036038101906102c19190612191565b610899565b005b6102e260048036038101906102dd919061209c565b6108f9565b005b3480156102f057600080fd5b5061030b60048036038101906103069190612191565b610a1c565b005b34801561031957600080fd5b50610322610a3c565b005b34801561033057600080fd5b5061034b6004803603810190610346919061209c565b610a3e565b604051610358919061210a565b60405180910390f35b34801561036d57600080fd5b50610388600480360381019061038391906121e4565b610ac4565b6040516103959190612220565b60405180910390f35b3480156103aa57600080fd5b506103b3610b7b565b005b3480156103c157600080fd5b506103ca610b8f565b6040516103d7919061210a565b60405180910390f35b3480156103ec57600080fd5b506103f5610bb9565b6040516104029190612044565b60405180910390f35b34801561041757600080fd5b50610432600480360381019061042d9190612267565b610c4b565b005b34801561044057600080fd5b50610449610c61565b005b34801561045757600080fd5b50610472600480360381019061046d91906123dc565b610c63565b005b34801561048057600080fd5b5061049b6004803603810190610496919061209c565b610cc5565b6040516104a89190612044565b60405180910390f35b3480156104bd57600080fd5b506104c6610d2d565b005b3480156104d457600080fd5b506104dd610d2f565b005b3480156104eb57600080fd5b506105066004803603810190610501919061245f565b610d31565b6040516105139190611f99565b60405180910390f35b34801561052857600080fd5b50610531610dc5565b005b34801561053f57600080fd5b5061055a600480360381019061055591906121e4565b610dc7565b005b34801561056857600080fd5b50610583600480360381019061057e9190612540565b610e4a565b005b34801561059157600080fd5b506105ac60048036038101906105a7919061209c565b610f62565b6040516105bb9392919061259c565b60405180910390f35b60007f80ac58cd000000000000000000000000000000000000000000000000000000007bffffffffffffffffffffffffffffffffffffffffffffffffffffffff1916827bffffffffffffffffffffffffffffffffffffffffffffffffffffffff1916148061068f57507f5b5e139f000000000000000000000000000000000000000000000000000000007bffffffffffffffffffffffffffffffffffffffffffffffffffffffff1916827bffffffffffffffffffffffffffffffffffffffffffffffffffffffff1916145b8061069f575061069e82611014565b5b9050919050565b565b565b6060600080546106b990612609565b80601f01602080910402602001604051908101604052809291908181526020018280546106e590612609565b80156107325780601f1061070757610100808354040283529160200191610732565b820191906000526020600020905b81548152906001019060200180831161071557829003601f168201915b5050505050905090565b60006107478261107e565b6004600083815260200190815260200160002060009054906101000a900473ffffffffffffffffffffffffffffffffffffffff169050919050565b600061078d82610a3e565b90508073ffffffffffffffffffffffffffffffffffffffff168373ffffffffffffffffffffffffffffffffffffffff16036107fd576040517f08c379a00000000000000000000000000000000000000000000000000000000081526004016107f4906126ac565b60405180910390fd5b8073ffffffffffffffffffffffffffffffffffffffff1661081c6110c9565b73ffffffffffffffffffffffffffffffffffffffff16148061084b575061084a816108456110c9565b610d31565b5b61088a576040517f08c379a00000000000000000000000000000000000000000000000000000000081526004016108819061273e565b60405180910390fd5b61089483836110d1565b505050565b6108aa6108a46110c9565b8261118a565b6108e9576040517f08c379a00000000000000000000000000000000000000000000000000000000081526004016108e0906127d0565b60405180910390fd5b6108f483838361121f565b505050565b600060086000838152602001908152602001600020905081816000015414610956576040517f08c379a000000000000000000000000000000000000000000000000000000000815260040161094d9061283c565b60405180910390fd5b8060020154341461099c576040517f08c379a0000000000000000000000000000000000000000000000000000000008152600401610993906128ce565b60405180910390fd5b60006109a783610a3e565b90503373ffffffffffffffffffffffffffffffffffffffff168173ffffffffffffffffffffffffffffffffffffffff1603610a17576040517f08c379a0000000000000000000000000000000000000000000000000000000008152600401610a0e9061293a565b60405180910390fd5b505050565b610a3783838360405180602001604052806000815250610c63565b505050565b565b600080610a4a83611518565b9050600073ffffffffffffffffffffffffffffffffffffffff168173ffffffffffffffffffffffffffffffffffffffff1603610abb576040517f08c379a0000000000000000000000000000000000000000000000000000000008152600401610ab2906129a6565b60405180910390fd5b80915050919050565b60008073ffffffffffffffffffffffffffffffffffffffff168273ffffffffffffffffffffffffffffffffffffffff1603610b34576040517f08c379a0000000000000000000000000000000000000000000000000000000008152600401610b2b90612a38565b60405180910390fd5b600360008373ffffffffffffffffffffffffffffffffffffffff1673ffffffffffffffffffffffffffffffffffffffff168152602001908152602001600020549050919050565b610b83611555565b610b8d60006115d3565b565b6000600660009054906101000a900473ffffffffffffffffffffffffffffffffffffffff16905090565b606060018054610bc890612609565b80601f0160208091040260200160405190810160405280929190818152602001828054610bf490612609565b8015610c415780601f10610c1657610100808354040283529160200191610c41565b820191906000526020600020905b815481529060010190602001808311610c2457829003601f168201915b5050505050905090565b610c5d610c566110c9565b8383611699565b5050565b565b610c74610c6e6110c9565b8361118a565b610cb3576040517f08c379a0000000000000000000000000000000000000000000000000000000008152600401610caa906127d0565b60405180910390fd5b610cbf84848484611805565b50505050565b6060610cd08261107e565b6000610cda611861565b90506000815111610cfa5760405180602001604052806000815250610d25565b80610d0484611878565b604051602001610d15929190612a94565b6040516020818303038152906040525b915050919050565b565b565b6000600560008473ffffffffffffffffffffffffffffffffffffffff1673ffffffffffffffffffffffffffffffffffffffff16815260200190815260200160002060008373ffffffffffffffffffffffffffffffffffffffff1673ffffffffffffffffffffffffffffffffffffffff16815260200190815260200160002060009054906101000a900460ff16905092915050565b565b610dcf611555565b600073ffffffffffffffffffffffffffffffffffffffff168173ffffffffffffffffffffffffffffffffffffffff1603610e3e576040517f08c379a0000000000000000000000000000000000000000000000000000000008152600401610e3590612b2a565b60405180910390fd5b610e47816115d3565b50565b610e52611555565b6001600754610e619190612b79565b6007819055506000600754905060405180606001604052808281526020018481526020018381525060086000838152602001908152602001600020600082015181600001556020820151816001019081610ebb9190612d5f565b5060408201518160020155905050610ed33382611946565b807fca5ae189781a447a208f1face1d2a31948bbe025c23d477b54af011fac40916c8484604051610f05929190612e31565b60405180910390a23373ffffffffffffffffffffffffffffffffffffffff16817fefa6fbbae1b34c8dbf0bd0709da0ded7b338eb562b66787895bb9dbc7e252e4e6064604051610f559190612e9c565b60405180910390a3505050565b6008602052806000526040600020600091509050806000015490806001018054610f8b90612609565b80601f0160208091040260200160405190810160405280929190818152602001828054610fb790612609565b80156110045780601f10610fd957610100808354040283529160200191611004565b820191906000526020600020905b815481529060010190602001808311610fe757829003601f168201915b5050505050908060020154905083565b60007f01ffc9a7000000000000000000000000000000000000000000000000000000007bffffffffffffffffffffffffffffffffffffffffffffffffffffffff1916827bffffffffffffffffffffffffffffffffffffffffffffffffffffffff1916149050919050565b61108781611b63565b6110c6576040517f08c379a00000000000000000000000000000000000000000000000000000000081526004016110bd906129a6565b60405180910390fd5b50565b600033905090565b816004600083815260200190815260200160002060006101000a81548173ffffffffffffffffffffffffffffffffffffffff021916908373ffffffffffffffffffffffffffffffffffffffff160217905550808273ffffffffffffffffffffffffffffffffffffffff1661114483610a3e565b73ffffffffffffffffffffffffffffffffffffffff167f8c5be1e5ebec7d5bd14f71427d1e84f3dd0314c0f7b2291e5b200ac8c7c3b92560405160405180910390a45050565b60008061119683610a3e565b90508073ffffffffffffffffffffffffffffffffffffffff168473ffffffffffffffffffffffffffffffffffffffff1614806111d857506111d78185610d31565b5b8061121657508373ffffffffffffffffffffffffffffffffffffffff166111fe8461073c565b73ffffffffffffffffffffffffffffffffffffffff16145b91505092915050565b8273ffffffffffffffffffffffffffffffffffffffff1661123f82610a3e565b73ffffffffffffffffffffffffffffffffffffffff1614611295576040517f08c379a000000000000000000000000000000000000000000000000000000000815260040161128c90612f29565b60405180910390fd5b600073ffffffffffffffffffffffffffffffffffffffff168273ffffffffffffffffffffffffffffffffffffffff1603611304576040517f08c379a00000000000000000000000000000000000000000000000000000000081526004016112fb90612fbb565b60405180910390fd5b6113118383836001611ba4565b8273ffffffffffffffffffffffffffffffffffffffff1661133182610a3e565b73ffffffffffffffffffffffffffffffffffffffff1614611387576040517f08c379a000000000000000000000000000000000000000000000000000000000815260040161137e90612f29565b60405180910390fd5b6004600082815260200190815260200160002060006101000a81549073ffffffffffffffffffffffffffffffffffffffff02191690556001600360008573ffffffffffffffffffffffffffffffffffffffff1673ffffffffffffffffffffffffffffffffffffffff168152602001908152602001600020600082825403925050819055506001600360008473ffffffffffffffffffffffffffffffffffffffff1673ffffffffffffffffffffffffffffffffffffffff16815260200190815260200160002060008282540192505081905550816002600083815260200190815260200160002060006101000a81548173ffffffffffffffffffffffffffffffffffffffff021916908373ffffffffffffffffffffffffffffffffffffffff160217905550808273ffffffffffffffffffffffffffffffffffffffff168473ffffffffffffffffffffffffffffffffffffffff167fddf252ad1be2c89b69c2b068fc378daa952ba7f163c4a11628f55a4df523b3ef60405160405180910390a46115138383836001611baa565b505050565b60006002600083815260200190815260200160002060009054906101000a900473ffffffffffffffffffffffffffffffffffffffff169050919050565b61155d6110c9565b73ffffffffffffffffffffffffffffffffffffffff1661157b610b8f565b73ffffffffffffffffffffffffffffffffffffffff16146115d1576040517f08c379a00000000000000000000000000000000000000000000000000000000081526004016115c890613027565b60405180910390fd5b565b6000600660009054906101000a900473ffffffffffffffffffffffffffffffffffffffff16905081600660006101000a81548173ffffffffffffffffffffffffffffffffffffffff021916908373ffffffffffffffffffffffffffffffffffffffff1602179055508173ffffffffffffffffffffffffffffffffffffffff168173ffffffffffffffffffffffffffffffffffffffff167f8be0079c531659141344cd1fd0a4f28419497f9722a3daafe3b4186f6b6457e060405160405180910390a35050565b8173ffffffffffffffffffffffffffffffffffffffff168373ffffffffffffffffffffffffffffffffffffffff1603611707576040517f08c379a00000000000000000000000000000000000000000000000000000000081526004016116fe90613093565b60405180910390fd5b80600560008573ffffffffffffffffffffffffffffffffffffffff1673ffffffffffffffffffffffffffffffffffffffff16815260200190815260200160002060008473ffffffffffffffffffffffffffffffffffffffff1673ffffffffffffffffffffffffffffffffffffffff16815260200190815260200160002060006101000a81548160ff0219169083151502179055508173ffffffffffffffffffffffffffffffffffffffff168373ffffffffffffffffffffffffffffffffffffffff167f17307eab39ab6107e8899845ad3d59bd9653f200f220920489ca2b5937696c31836040516117f89190611f99565b60405180910390a3505050565b61181084848461121f565b61181c84848484611bb0565b61185b576040517f08c379a000000000000000000000000000000000000000000000000000000000815260040161185290613125565b60405180910390fd5b50505050565b606060405180602001604052806000815250905090565b60606000600161188784611d6f565b01905060008167ffffffffffffffff8111156118a6576118a56122b1565b5b6040519080825280601f01601f1916602001820160405280156118d85781602001600182028036833780820191505090505b509050600082602001820190505b60011561193b578080600190039150507f3031323334353637383961626364656600000000000000000000000000000000600a86061a8153600a858161192f5761192e613145565b5b049450600085036118e6575b819350505050919050565b600073ffffffffffffffffffffffffffffffffffffffff168273ffffffffffffffffffffffffffffffffffffffff16036119b5576040517f08c379a00000000000000000000000000000000000000000000000000000000081526004016119ac906131c0565b60405180910390fd5b6119be81611b63565b156119fe576040517f08c379a00000000000000000000000000000000000000000000000000000000081526004016119f59061322c565b60405180910390fd5b611a0c600083836001611ba4565b611a1581611b63565b15611a55576040517f08c379a0000000000000000000000000000000000000000000000000000000008152600401611a4c9061322c565b60405180910390fd5b6001600360008473ffffffffffffffffffffffffffffffffffffffff1673ffffffffffffffffffffffffffffffffffffffff16815260200190815260200160002060008282540192505081905550816002600083815260200190815260200160002060006101000a81548173ffffffffffffffffffffffffffffffffffffffff021916908373ffffffffffffffffffffffffffffffffffffffff160217905550808273ffffffffffffffffffffffffffffffffffffffff16600073ffffffffffffffffffffffffffffffffffffffff167fddf252ad1be2c89b69c2b068fc378daa952ba7f163c4a11628f55a4df523b3ef60405160405180910390a4611b5f600083836001611baa565b5050565b60008073ffffffffffffffffffffffffffffffffffffffff16611b8583611518565b73ffffffffffffffffffffffffffffffffffffffff1614159050919050565b50505050565b50505050565b6000611bd18473ffffffffffffffffffffffffffffffffffffffff16611ec2565b15611d62578373ffffffffffffffffffffffffffffffffffffffff1663150b7a02611bfa6110c9565b8786866040518563ffffffff167c0100000000000000000000000000000000000000000000000000000000028152600401611c3894939291906132a1565b6020604051808303816000875af1925050508015611c7457506040513d601f19601f82011682018060405250810190611c719190613302565b60015b611cf6573d8060008114611ca4576040519150601f19603f3d011682016040523d82523d6000602084013e611ca9565b606091505b506000815103611cee576040517f08c379a0000000000000000000000000000000000000000000000000000000008152600401611ce590613125565b60405180910390fd5b805181602001fd5b63150b7a027c0100000000000000000000000000000000000000000000000000000000027bffffffffffffffffffffffffffffffffffffffffffffffffffffffff1916817bffffffffffffffffffffffffffffffffffffffffffffffffffffffff191614915050611d67565b600190505b949350505050565b600080600090507a184f03e93ff9f4daa797ed6e38ed64bf6a1f0100000000000000008310611dcd577a184f03e93ff9f4daa797ed6e38ed64bf6a1f0100000000000000008381611dc357611dc2613145565b5b0492506040810190505b6d04ee2d6d415b85acef81000000008310611e0a576d04ee2d6d415b85acef81000000008381611e0057611dff613145565b5b0492506020810190505b662386f26fc100008310611e3957662386f26fc100008381611e2f57611e2e613145565b5b0492506010810190505b6305f5e1008310611e62576305f5e1008381611e5857611e57613145565b5b0492506008810190505b6127108310611e87576127108381611e7d57611e7c613145565b5b0492506004810190505b60648310611eaa5760648381611ea057611e9f613145565b5b0492506002810190505b600a8310611eb9576001810190505b80915050919050565b6000808273ffffffffffffffffffffffffffffffffffffffff163b119050919050565b6000604051905090565b600080fd5b600080fd5b60007fffffffff0000000000000000000000000000000000000000000000000000000082169050919050565b611f2e81611ef9565b8114611f3957600080fd5b50565b600081359050611f4b81611f25565b92915050565b600060208284031215611f6757611f66611eef565b5b6000611f7584828501611f3c565b91505092915050565b60008115159050919050565b611f9381611f7e565b82525050565b6000602082019050611fae6000830184611f8a565b92915050565b600081519050919050565b600082825260208201905092915050565b60005b83811015611fee578082015181840152602081019050611fd3565b60008484015250505050565b6000601f19601f8301169050919050565b600061201682611fb4565b6120208185611fbf565b9350612030818560208601611fd0565b61203981611ffa565b840191505092915050565b6000602082019050818103600083015261205e818461200b565b905092915050565b6000819050919050565b61207981612066565b811461208457600080fd5b50565b60008135905061209681612070565b92915050565b6000602082840312156120b2576120b1611eef565b5b60006120c084828501612087565b91505092915050565b600073ffffffffffffffffffffffffffffffffffffffff82169050919050565b60006120f4826120c9565b9050919050565b612104816120e9565b82525050565b600060208201905061211f60008301846120fb565b92915050565b61212e816120e9565b811461213957600080fd5b50565b60008135905061214b81612125565b92915050565b6000806040838503121561216857612167611eef565b5b60006121768582860161213c565b925050602061218785828601612087565b9150509250929050565b6000806000606084860312156121aa576121a9611eef565b5b60006121b88682870161213c565b93505060206121c98682870161213c565b92505060406121da86828701612087565b9150509250925092565b6000602082840312156121fa576121f9611eef565b5b60006122088482850161213c565b91505092915050565b61221a81612066565b82525050565b60006020820190506122356000830184612211565b92915050565b61224481611f7e565b811461224f57600080fd5b50565b6000813590506122618161223b565b92915050565b6000806040838503121561227e5761227d611eef565b5b600061228c8582860161213c565b925050602061229d85828601612252565b9150509250929050565b600080fd5b600080fd5b7f4e487b7100000000000000000000000000000000000000000000000000000000600052604160045260246000fd5b6122e982611ffa565b810181811067ffffffffffffffff82111715612308576123076122b1565b5b80604052505050565b600061231b611ee5565b905061232782826122e0565b919050565b600067ffffffffffffffff821115612347576123466122b1565b5b61235082611ffa565b9050602081019050919050565b82818337600083830152505050565b600061237f61237a8461232c565b612311565b90508281526020810184848401111561239b5761239a6122ac565b5b6123a684828561235d565b509392505050565b600082601f8301126123c3576123c26122a7565b5b81356123d384826020860161236c565b91505092915050565b600080600080608085870312156123f6576123f5611eef565b5b60006124048782880161213c565b94505060206124158782880161213c565b935050604061242687828801612087565b925050606085013567ffffffffffffffff81111561244757612446611ef4565b5b612453878288016123ae565b91505092959194509250565b6000806040838503121561247657612475611eef565b5b60006124848582860161213c565b92505060206124958582860161213c565b9150509250929050565b600067ffffffffffffffff8211156124ba576124b96122b1565b5b6124c382611ffa565b9050602081019050919050565b60006124e36124de8461249f565b612311565b9050828152602081018484840111156124ff576124fe6122ac565b5b61250a84828561235d565b509392505050565b600082601f830112612527576125266122a7565b5b81356125378482602086016124d0565b91505092915050565b6000806040838503121561255757612556611eef565b5b600083013567ffffffffffffffff81111561257557612574611ef4565b5b61258185828601612512565b925050602061259285828601612087565b9150509250929050565b60006060820190506125b16000830186612211565b81810360208301526125c3818561200b565b90506125d26040830184612211565b949350505050565b7f4e487b7100000000000000000000000000000000000000000000000000000000600052602260045260246000fd5b6000600282049050600182168061262157607f821691505b602082108103612634576126336125da565b5b50919050565b7f4552433732313a20617070726f76616c20746f2063757272656e74206f776e6560008201527f7200000000000000000000000000000000000000000000000000000000000000602082015250565b6000612696602183611fbf565b91506126a18261263a565b604082019050919050565b600060208201905081810360008301526126c581612689565b9050919050565b7f4552433732313a20617070726f76652063616c6c6572206973206e6f7420746f60008201527f6b656e206f776e6572206f7220617070726f76656420666f7220616c6c000000602082015250565b6000612728603d83611fbf565b9150612733826126cc565b604082019050919050565b600060208201905081810360008301526127578161271b565b9050919050565b7f4552433732313a2063616c6c6572206973206e6f7420746f6b656e206f776e6560008201527f72206f7220617070726f76656400000000000000000000000000000000000000602082015250565b60006127ba602d83611fbf565b91506127c58261275e565b604082019050919050565b600060208201905081810360008301526127e9816127ad565b9050919050565b7f50726f706572747920646f6573206e6f742065786973742e0000000000000000600082015250565b6000612826601883611fbf565b9150612831826127f0565b602082019050919050565b6000602082019050818103600083015261285581612819565b9050919050565b7f496e73756666696369656e742066756e647320746f206275792074686520707260008201527f6f70657274792e00000000000000000000000000000000000000000000000000602082015250565b60006128b8602783611fbf565b91506128c38261285c565b604082019050919050565b600060208201905081810360008301526128e7816128ab565b9050919050565b7f596f7520616c7265616479206f776e20746869732070726f70657274792e0000600082015250565b6000612924601e83611fbf565b915061292f826128ee565b602082019050919050565b6000602082019050818103600083015261295381612917565b9050919050565b7f4552433732313a20696e76616c696420746f6b656e2049440000000000000000600082015250565b6000612990601883611fbf565b915061299b8261295a565b602082019050919050565b600060208201905081810360008301526129bf81612983565b9050919050565b7f4552433732313a2061646472657373207a65726f206973206e6f74206120766160008201527f6c6964206f776e65720000000000000000000000000000000000000000000000602082015250565b6000612a22602983611fbf565b9150612a2d826129c6565b604082019050919050565b60006020820190508181036000830152612a5181612a15565b9050919050565b600081905092915050565b6000612a6e82611fb4565b612a788185612a58565b9350612a88818560208601611fd0565b80840191505092915050565b6000612aa08285612a63565b9150612aac8284612a63565b91508190509392505050565b7f4f776e61626c653a206e6577206f776e657220697320746865207a65726f206160008201527f6464726573730000000000000000000000000000000000000000000000000000602082015250565b6000612b14602683611fbf565b9150612b1f82612ab8565b604082019050919050565b60006020820190508181036000830152612b4381612b07565b9050919050565b7f4e487b7100000000000000000000000000000000000000000000000000000000600052601160045260246000fd5b6000612b8482612066565b9150612b8f83612066565b9250828201905080821115612ba757612ba6612b4a565b5b92915050565b60008190508160005260206000209050919050565b60006020601f8301049050919050565b60008160020a8302905092915050565b600060088302612c127fffffffffffffffffffffffffffffffffffffffffffffffffffffffffffffffff82612bd2565b612c1c8683612bd2565b95508019841693508086168417925050509392505050565b6000819050919050565b6000612c59612c54612c4f84612066565b612c34565b612066565b9050919050565b6000819050919050565b612c7383612c3e565b612c87612c7f82612c60565b848454612be2565b825550505050565b600090565b612c9c612c8f565b612ca7818484612c6a565b505050565b5b81811015612ccb57612cc0600082612c94565b600181019050612cad565b5050565b601f821115612d1057612ce181612bad565b612cea84612bc2565b81016020851015612cf9578190505b612d0d612d0585612bc2565b830182612cac565b50505b505050565b60008160020a8304905092915050565b6000612d3660001984600802612d15565b1980831691505092915050565b6000612d4f8383612d25565b9150826002028217905092915050565b612d6882611fb4565b67ffffffffffffffff811115612d8157612d806122b1565b5b612d8b8254612609565b612d96828285612ccf565b600060209050601f831160018114612dc95760008415612db7578287015190505b612dc18582612d43565b865550612e29565b601f198416612dd786612bad565b60005b82811015612dff57848901518255600182019150602085019450602081019050612dda565b86831015612e1c5784890151612e18601f891682612d25565b8355505b6001600288020188555050505b505050505050565b60006040820190508181036000830152612e4b818561200b565b9050612e5a6020830184612211565b9392505050565b6000819050919050565b6000612e86612e81612e7c84612e61565b612c34565b612066565b9050919050565b612e9681612e6b565b82525050565b6000602082019050612eb16000830184612e8d565b92915050565b7f4552433732313a207472616e736665722066726f6d20696e636f72726563742060008201527f6f776e6572000000000000000000000000000000000000000000000000000000602082015250565b6000612f13602583611fbf565b9150612f1e82612eb7565b604082019050919050565b60006020820190508181036000830152612f4281612f06565b9050919050565b7f4552433732313a207472616e7366657220746f20746865207a65726f2061646460008201527f7265737300000000000000000000000000000000000000000000000000000000602082015250565b6000612fa5602483611fbf565b9150612fb082612f49565b604082019050919050565b60006020820190508181036000830152612fd481612f98565b9050919050565b7f4f776e61626c653a2063616c6c6572206973206e6f7420746865206f776e6572600082015250565b6000613011602083611fbf565b915061301c82612fdb565b602082019050919050565b6000602082019050818103600083015261304081613004565b9050919050565b7f4552433732313a20617070726f766520746f2063616c6c657200000000000000600082015250565b600061307d601983611fbf565b915061308882613047565b602082019050919050565b600060208201905081810360008301526130ac81613070565b9050919050565b7f4552433732313a207472616e7366657220746f206e6f6e20455243373231526560008201527f63656976657220696d706c656d656e7465720000000000000000000000000000602082015250565b600061310f603283611fbf565b915061311a826130b3565b604082019050919050565b6000602082019050818103600083015261313e81613102565b9050919050565b7f4e487b7100000000000000000000000000000000000000000000000000000000600052601260045260246000fd5b7f4552433732313a206d696e7420746f20746865207a65726f2061646472657373600082015250565b60006131aa602083611fbf565b91506131b582613174565b602082019050919050565b600060208201905081810360008301526131d98161319d565b9050919050565b7f4552433732313a20746f6b656e20616c7265616479206d696e74656400000000600082015250565b6000613216601c83611fbf565b9150613221826131e0565b602082019050919050565b6000602082019050818103600083015261324581613209565b9050919050565b600081519050919050565b600082825260208201905092915050565b60006132738261324c565b61327d8185613257565b935061328d818560208601611fd0565b61329681611ffa565b840191505092915050565b60006080820190506132b660008301876120fb565b6132c360208301866120fb565b6132d06040830185612211565b81810360608301526132e28184613268565b905095945050505050565b6000815190506132fc81611f25565b92915050565b60006020828403121561331857613317611eef565b5b6000613326848285016132ed565b9150509291505056fea264697066735822122056324690941c3f3253c844abe61d2a17b426a3f5bf6da7f8d48e5edefeeb7ba364736f6c63430008110033",
  "immutableReferences": {},
  "source": "// SPDX-License-Identifier: MIT\npragma solidity ^0.8.17;\n\nimport \"@openzeppelin/contracts/token/ERC721/ERC721.sol\";\nimport \"@openzeppelin/contracts/access/Ownable.sol\";\n\ncontract Property is ERC721, Ownable {\n\n  constructor() ERC721(\"LandOwnership\", \"LRS\"){}\n\n  struct LandProperty {\n    uint256 propertyId;\n    string location;\n    uint256 price;\n    // mapping(address => uint256) shares;\n  }\n\n//   LandProperty public landPropertyInstance;\n  \n  // token Id counter\n  uint256 private _propertyIdCounter;\n\n  // properties owned\n  mapping(uint256 => LandProperty) public properties;\n\n  // Events:\n  // PropertyCreated\n  event PropertyCreated(\n    uint256 indexed propertyId, \n    string location, \n    uint256 price\n  );\n\n  // PropertyTransfered\n  event PropertyTransfered(\n    uint256 indexed propertyId, \n    address indexed buyer\n  );\n  \n  // PropertySold\n  event PropertySold(\n    uint256 indexed propertyId, \n    address indexed buyer, \n    uint256 price\n  );\n  \n  // PropertyUpdatedPrice\n  event UpdatePrice(\n    uint256 indexed propertyId, \n    uint256 new_price\n  );\n  \n  // Nominated\n  event Nominated(\n    uint256 indexed propertyId, \n    address indexed nominee\n  );\n\n  // SharedOwnerAdded\n  event SharedOwnerUpdate(\n    uint256 indexed propertyId, \n    address indexed owner, \n    uint256 shares\n  );\n\n  // TODO:\n  // SetPropertyPrice / UpdatePropertyPrice\n  function SetProperty() public {\n\n  }\n  \n  // TransferOwnership \n  function TransferOwnership() public {}\n  \n  // CreateProperty\n  function CreateProperty(string memory _location, uint256 _price) public onlyOwner {\n    _propertyIdCounter = _propertyIdCounter + 1;\n    uint256 newPropertyId = _propertyIdCounter;\n\n    properties[newPropertyId] = LandProperty(newPropertyId, _location, _price);\n    _mint(msg.sender, newPropertyId);\n    \n    emit PropertyCreated(newPropertyId, _location, _price);\n    emit SharedOwnerUpdate(newPropertyId, msg.sender, 100);\n  }\n  \n  // BuyProperty\n  function BuyProperty(uint256 _propertyId) public payable {\n    LandProperty storage landprop = properties[_propertyId];\n    require(landprop.propertyId == _propertyId, \"Property does not exist.\");\n    require(msg.value == landprop.price, \"Insufficient funds to buy the property.\");  \n\n    address propertyOwner = ownerOf(_propertyId);\n    require(propertyOwner != msg.sender, \"You already own this property.\");\n  }\n\n  // PropertyAvailability\n  function PropertyAvailability() public {}\n  \n  // PropertyNominee\n  function PropertyNominee() public {}\n\n  // SharedOwnerShip, the visibility can be private as \n  // sometimes shared ownership\n  function SharedOwnerShip() public {}\n  \n  // GetOwnershipPercentage\n  function GetOwnerhipPercentage() public {}\n\n  // UpdateSharedOwner\n  function UpdateSharedOwner() public {}\n  \n  // AddSharedOwner\n  function AddSharedOwner() private {}\n\n  // FractionalOwnership\n  function FractionOwnership() private {}\n\n}\n",
  "sourcePath": "D:\\originlab\\polychain\\contracts\\Property.sol",
  "compiler": {
    "name": "solc",
    "version": "0.8.17+commit.8df45f5f.Emscripten.clang"
  },
  "schemaVersion": "3.4.10",
  "updatedAt": "2023-05-02T12:20:16.757Z",
  "devdoc": {
    "kind": "dev",
    "methods": {
      "approve(address,uint256)": {
        "details": "See {IERC721-approve}."
      },
      "balanceOf(address)": {
        "details": "See {IERC721-balanceOf}."
      },
      "getApproved(uint256)": {
        "details": "See {IERC721-getApproved}."
      },
      "isApprovedForAll(address,address)": {
        "details": "See {IERC721-isApprovedForAll}."
      },
      "name()": {
        "details": "See {IERC721Metadata-name}."
      },
      "owner()": {
        "details": "Returns the address of the current owner."
      },
      "ownerOf(uint256)": {
        "details": "See {IERC721-ownerOf}."
      },
      "renounceOwnership()": {
        "details": "Leaves the contract without owner. It will not be possible to call `onlyOwner` functions anymore. Can only be called by the current owner. NOTE: Renouncing ownership will leave the contract without an owner, thereby removing any functionality that is only available to the owner."
      },
      "safeTransferFrom(address,address,uint256)": {
        "details": "See {IERC721-safeTransferFrom}."
      },
      "safeTransferFrom(address,address,uint256,bytes)": {
        "details": "See {IERC721-safeTransferFrom}."
      },
      "setApprovalForAll(address,bool)": {
        "details": "See {IERC721-setApprovalForAll}."
      },
      "supportsInterface(bytes4)": {
        "details": "See {IERC165-supportsInterface}."
      },
      "symbol()": {
        "details": "See {IERC721Metadata-symbol}."
      },
      "tokenURI(uint256)": {
        "details": "See {IERC721Metadata-tokenURI}."
      },
      "transferFrom(address,address,uint256)": {
        "details": "See {IERC721-transferFrom}."
      },
      "transferOwnership(address)": {
        "details": "Transfers ownership of the contract to a new account (`newOwner`). Can only be called by the current owner."
      }
    },
    "version": 1
  },
  "userdoc": {
    "kind": "user",
    "methods": {},
    "version": 1
  }
}