{
  "contractName": "Property",
  "abi": [
    {
      "inputs": [],
      "stateMutability": "nonpayable",
      "type": "constructor"
    },
    {
      "anonymous": false,
      "inputs": [
        {
          "indexed": true,
          "internalType": "address",
          "name": "owner",
          "type": "address"
        },
        {
          "indexed": true,
          "internalType": "address",
          "name": "approved",
          "type": "address"
        },
        {
          "indexed": true,
          "internalType": "uint256",
          "name": "tokenId",
          "type": "uint256"
        }
      ],
      "name": "Approval",
      "type": "event"
    },
    {
      "anonymous": false,
      "inputs": [
        {
          "indexed": true,
          "internalType": "address",
          "name": "owner",
          "type": "address"
        },
        {
          "indexed": true,
          "internalType": "address",
          "name": "operator",
          "type": "address"
        },
        {
          "indexed": false,
          "internalType": "bool",
          "name": "approved",
          "type": "bool"
        }
      ],
      "name": "ApprovalForAll",
      "type": "event"
    },
    {
      "anonymous": false,
      "inputs": [
        {
          "indexed": true,
          "internalType": "uint256",
          "name": "propertyId",
          "type": "uint256"
        },
        {
          "indexed": true,
          "internalType": "address",
          "name": "nominee",
          "type": "address"
        }
      ],
      "name": "Nominated",
      "type": "event"
    },
    {
      "anonymous": false,
      "inputs": [
        {
          "indexed": true,
          "internalType": "address",
          "name": "previousOwner",
          "type": "address"
        },
        {
          "indexed": true,
          "internalType": "address",
          "name": "newOwner",
          "type": "address"
        }
      ],
      "name": "OwnershipTransferred",
      "type": "event"
    },
    {
      "anonymous": false,
      "inputs": [
        {
          "indexed": true,
          "internalType": "uint256",
          "name": "propertyId",
          "type": "uint256"
        },
        {
          "indexed": false,
          "internalType": "string",
          "name": "location",
          "type": "string"
        },
        {
          "indexed": false,
          "internalType": "uint256",
          "name": "price",
          "type": "uint256"
        }
      ],
      "name": "PropertyCreated",
      "type": "event"
    },
    {
      "anonymous": false,
      "inputs": [
        {
          "indexed": true,
          "internalType": "uint256",
          "name": "propertyId",
          "type": "uint256"
        },
        {
          "indexed": true,
          "internalType": "address",
          "name": "buyer",
          "type": "address"
        },
        {
          "indexed": false,
          "internalType": "uint256",
          "name": "price",
          "type": "uint256"
        }
      ],
      "name": "PropertySold",
      "type": "event"
    },
    {
      "anonymous": false,
      "inputs": [
        {
          "indexed": true,
          "internalType": "uint256",
          "name": "propertyId",
          "type": "uint256"
        },
        {
          "indexed": true,
          "internalType": "address",
          "name": "buyer",
          "type": "address"
        }
      ],
      "name": "PropertyTransfered",
      "type": "event"
    },
    {
      "anonymous": false,
      "inputs": [
        {
          "indexed": true,
          "internalType": "uint256",
          "name": "propertyId",
          "type": "uint256"
        },
        {
          "indexed": true,
          "internalType": "address",
          "name": "owner",
          "type": "address"
        },
        {
          "indexed": false,
          "internalType": "uint256",
          "name": "shares",
          "type": "uint256"
        }
      ],
      "name": "SharedOwnerUpdate",
      "type": "event"
    },
    {
      "anonymous": false,
      "inputs": [
        {
          "indexed": true,
          "internalType": "address",
          "name": "from",
          "type": "address"
        },
        {
          "indexed": true,
          "internalType": "address",
          "name": "to",
          "type": "address"
        },
        {
          "indexed": true,
          "internalType": "uint256",
          "name": "tokenId",
          "type": "uint256"
        }
      ],
      "name": "Transfer",
      "type": "event"
    },
    {
      "anonymous": false,
      "inputs": [
        {
          "indexed": true,
          "internalType": "uint256",
          "name": "propertyId",
          "type": "uint256"
        },
        {
          "indexed": false,
          "internalType": "uint256",
          "name": "new_price",
          "type": "uint256"
        }
      ],
      "name": "UpdatePrice",
      "type": "event"
    },
    {
      "inputs": [
        {
          "internalType": "address",
          "name": "to",
          "type": "address"
        },
        {
          "internalType": "uint256",
          "name": "tokenId",
          "type": "uint256"
        }
      ],
      "name": "approve",
      "outputs": [],
      "stateMutability": "nonpayable",
      "type": "function"
    },
    {
      "inputs": [
        {
          "internalType": "address",
          "name": "owner",
          "type": "address"
        }
      ],
      "name": "balanceOf",
      "outputs": [
        {
          "internalType": "uint256",
          "name": "",
          "type": "uint256"
        }
      ],
      "stateMutability": "view",
      "type": "function",
      "constant": true
    },
    {
      "inputs": [
        {
          "internalType": "uint256",
          "name": "tokenId",
          "type": "uint256"
        }
      ],
      "name": "getApproved",
      "outputs": [
        {
          "internalType": "address",
          "name": "",
          "type": "address"
        }
      ],
      "stateMutability": "view",
      "type": "function",
      "constant": true
    },
    {
      "inputs": [
        {
          "internalType": "address",
          "name": "owner",
          "type": "address"
        },
        {
          "internalType": "address",
          "name": "operator",
          "type": "address"
        }
      ],
      "name": "isApprovedForAll",
      "outputs": [
        {
          "internalType": "bool",
          "name": "",
          "type": "bool"
        }
      ],
      "stateMutability": "view",
      "type": "function",
      "constant": true
    },
    {
      "inputs": [],
      "name": "name",
      "outputs": [
        {
          "internalType": "string",
          "name": "",
          "type": "string"
        }
      ],
      "stateMutability": "view",
      "type": "function",
      "constant": true
    },
    {
      "inputs": [],
      "name": "owner",
      "outputs": [
        {
          "internalType": "address",
          "name": "",
          "type": "address"
        }
      ],
      "stateMutability": "view",
      "type": "function",
      "constant": true
    },
    {
      "inputs": [
        {
          "internalType": "uint256",
          "name": "tokenId",
          "type": "uint256"
        }
      ],
      "name": "ownerOf",
      "outputs": [
        {
          "internalType": "address",
          "name": "",
          "type": "address"
        }
      ],
      "stateMutability": "view",
      "type": "function",
      "constant": true
    },
    {
      "inputs": [
        {
          "internalType": "uint256",
          "name": "",
          "type": "uint256"
        }
      ],
      "name": "properties",
      "outputs": [
        {
          "internalType": "uint256",
          "name": "propertyId",
          "type": "uint256"
        },
        {
          "internalType": "string",
          "name": "location",
          "type": "string"
        },
        {
          "internalType": "uint256",
          "name": "price",
          "type": "uint256"
        }
      ],
      "stateMutability": "view",
      "type": "function",
      "constant": true
    },
    {
      "inputs": [],
      "name": "renounceOwnership",
      "outputs": [],
      "stateMutability": "nonpayable",
      "type": "function"
    },
    {
      "inputs": [
        {
          "internalType": "address",
          "name": "from",
          "type": "address"
        },
        {
          "internalType": "address",
          "name": "to",
          "type": "address"
        },
        {
          "internalType": "uint256",
          "name": "tokenId",
          "type": "uint256"
        }
      ],
      "name": "safeTransferFrom",
      "outputs": [],
      "stateMutability": "nonpayable",
      "type": "function"
    },
    {
      "inputs": [
        {
          "internalType": "address",
          "name": "from",
          "type": "address"
        },
        {
          "internalType": "address",
          "name": "to",
          "type": "address"
        },
        {
          "internalType": "uint256",
          "name": "tokenId",
          "type": "uint256"
        },
        {
          "internalType": "bytes",
          "name": "data",
          "type": "bytes"
        }
      ],
      "name": "safeTransferFrom",
      "outputs": [],
      "stateMutability": "nonpayable",
      "type": "function"
    },
    {
      "inputs": [
        {
          "internalType": "address",
          "name": "operator",
          "type": "address"
        },
        {
          "internalType": "bool",
          "name": "approved",
          "type": "bool"
        }
      ],
      "name": "setApprovalForAll",
      "outputs": [],
      "stateMutability": "nonpayable",
      "type": "function"
    },
    {
      "inputs": [
        {
          "internalType": "bytes4",
          "name": "interfaceId",
          "type": "bytes4"
        }
      ],
      "name": "supportsInterface",
      "outputs": [
        {
          "internalType": "bool",
          "name": "",
          "type": "bool"
        }
      ],
      "stateMutability": "view",
      "type": "function",
      "constant": true
    },
    {
      "inputs": [],
      "name": "symbol",
      "outputs": [
        {
          "internalType": "string",
          "name": "",
          "type": "string"
        }
      ],
      "stateMutability": "view",
      "type": "function",
      "constant": true
    },
    {
      "inputs": [
        {
          "internalType": "uint256",
          "name": "tokenId",
          "type": "uint256"
        }
      ],
      "name": "tokenURI",
      "outputs": [
        {
          "internalType": "string",
          "name": "",
          "type": "string"
        }
      ],
      "stateMutability": "view",
      "type": "function",
      "constant": true
    },
    {
      "inputs": [
        {
          "internalType": "address",
          "name": "from",
          "type": "address"
        },
        {
          "internalType": "address",
          "name": "to",
          "type": "address"
        },
        {
          "internalType": "uint256",
          "name": "tokenId",
          "type": "uint256"
        }
      ],
      "name": "transferFrom",
      "outputs": [],
      "stateMutability": "nonpayable",
      "type": "function"
    },
    {
      "inputs": [
        {
          "internalType": "address",
          "name": "newOwner",
          "type": "address"
        }
      ],
      "name": "transferOwnership",
      "outputs": [],
      "stateMutability": "nonpayable",
      "type": "function"
    },
    {
      "inputs": [
        {
          "internalType": "string",
          "name": "_location",
          "type": "string"
        },
        {
          "internalType": "uint256",
          "name": "_price",
          "type": "uint256"
        }
      ],
      "name": "CreateProperty",
      "outputs": [],
      "stateMutability": "nonpayable",
      "type": "function"
    },
    {
      "inputs": [
        {
          "internalType": "uint256",
          "name": "_propertyId",
          "type": "uint256"
        }
      ],
      "name": "BuyProperty",
      "outputs": [],
      "stateMutability": "payable",
      "type": "function",
      "payable": true
    },
    {
      "inputs": [
        {
          "internalType": "uint256",
          "name": "_propertyId",
          "type": "uint256"
        },
        {
          "internalType": "uint256",
          "name": "_newPrice",
          "type": "uint256"
        }
      ],
      "name": "updatePropertyPrice",
      "outputs": [],
      "stateMutability": "nonpayable",
      "type": "function"
    },
    {
      "inputs": [
        {
          "internalType": "address",
          "name": "_newOwner",
          "type": "address"
        },
        {
          "internalType": "uint256",
          "name": "_propertyId",
          "type": "uint256"
        }
      ],
      "name": "TransferOwnership",
      "outputs": [],
      "stateMutability": "nonpayable",
      "type": "function"
    },
    {
      "inputs": [
        {
          "internalType": "uint256",
          "name": "_propertyId",
          "type": "uint256"
        },
        {
          "internalType": "address",
          "name": "_owner",
          "type": "address"
        }
      ],
      "name": "GetOwnerhipPercentage",
      "outputs": [
        {
          "internalType": "uint256",
          "name": "",
          "type": "uint256"
        }
      ],
      "stateMutability": "view",
      "type": "function",
      "constant": true
    }
  ],
  "bytecode": "0x60806040523480156200001157600080fd5b506040518060400160405280600d81526020017f4c616e644f776e657273686970000000000000000000000000000000000000008152506040518060400160405280600381526020017f4c5253000000000000000000000000000000000000000000000000000000000081525081600090816200008f91906200042a565b508060019081620000a191906200042a565b505050620000d6620000c1620000dc640100000000026401000000009004565b620000e4640100000000026401000000009004565b62000511565b600033905090565b6000600660009054906101000a900473ffffffffffffffffffffffffffffffffffffffff16905081600660006101000a81548173ffffffffffffffffffffffffffffffffffffffff021916908373ffffffffffffffffffffffffffffffffffffffff1602179055508173ffffffffffffffffffffffffffffffffffffffff168173ffffffffffffffffffffffffffffffffffffffff167f8be0079c531659141344cd1fd0a4f28419497f9722a3daafe3b4186f6b6457e060405160405180910390a35050565b600081519050919050565b7f4e487b7100000000000000000000000000000000000000000000000000000000600052604160045260246000fd5b7f4e487b7100000000000000000000000000000000000000000000000000000000600052602260045260246000fd5b600060028204905060018216806200022c57607f821691505b602082108103620002425762000241620001e4565b5b50919050565b60008190508160005260206000209050919050565b60006020601f8301049050919050565b60008160020a8302905092915050565b600060088302620002af7fffffffffffffffffffffffffffffffffffffffffffffffffffffffffffffffff826200026d565b620002bb86836200026d565b95508019841693508086168417925050509392505050565b6000819050919050565b6000819050919050565b60006200030862000302620002fc84620002d3565b620002dd565b620002d3565b9050919050565b6000819050919050565b6200032483620002e7565b6200033c62000333826200030f565b8484546200027d565b825550505050565b600090565b6200035362000344565b6200036081848462000319565b505050565b5b8181101562000388576200037c60008262000349565b60018101905062000366565b5050565b601f821115620003d757620003a18162000248565b620003ac846200025d565b81016020851015620003bc578190505b620003d4620003cb856200025d565b83018262000365565b50505b505050565b60008160020a8304905092915050565b6000620003ff60001984600802620003dc565b1980831691505092915050565b60006200041a8383620003ec565b9150826002028217905092915050565b6200043582620001aa565b67ffffffffffffffff811115620004515762000450620001b5565b5b6200045d825462000213565b6200046a8282856200038c565b600060209050601f831160018114620004a257600084156200048d578287015190505b6200049985826200040c565b86555062000509565b601f198416620004b28662000248565b60005b82811015620004dc57848901518255600182019150602085019450602081019050620004b5565b86831015620004fc5784890151620004f8601f891682620003ec565b8355505b6001600288020188555050505b505050505050565b61385380620005216000396000f3fe608060405260043610610152576000357c0100000000000000000000000000000000000000000000000000000000900480639475ffd4116100c8578063c87b56dd1161008c578063c87b56dd14610432578063e985e9c51461046f578063f2fde38b146104ac578063f4650d58146104d5578063f7b10808146104fe578063fce401b21461053d57610152565b80639475ffd41461034f57806395d89b4114610378578063a22cb465146103a3578063b88d4fde146103cc578063c0b119b1146103f557610152565b806325a596001161011a57806325a596001461024e57806342842e0e1461026a5780636352211e1461029357806370a08231146102d0578063715018a61461030d5780638da5cb5b1461032457610152565b806301ffc9a71461015757806306fdde0314610194578063081812fc146101bf578063095ea7b3146101fc57806323b872dd14610225575b600080fd5b34801561016357600080fd5b5061017e6004803603810190610179919061224e565b610566565b60405161018b9190612296565b60405180910390f35b3480156101a057600080fd5b506101a9610648565b6040516101b69190612341565b60405180910390f35b3480156101cb57600080fd5b506101e660048036038101906101e19190612399565b6106da565b6040516101f39190612407565b60405180910390f35b34801561020857600080fd5b50610223600480360381019061021e919061244e565b610720565b005b34801561023157600080fd5b5061024c6004803603810190610247919061248e565b610837565b005b61026860048036038101906102639190612399565b610897565b005b34801561027657600080fd5b50610291600480360381019061028c919061248e565b610aa6565b005b34801561029f57600080fd5b506102ba60048036038101906102b59190612399565b610ac6565b6040516102c79190612407565b60405180910390f35b3480156102dc57600080fd5b506102f760048036038101906102f291906124e1565b610b4c565b604051610304919061251d565b60405180910390f35b34801561031957600080fd5b50610322610c03565b005b34801561033057600080fd5b50610339610c17565b6040516103469190612407565b60405180910390f35b34801561035b57600080fd5b506103766004803603810190610371919061244e565b610c41565b005b34801561038457600080fd5b5061038d610d18565b60405161039a9190612341565b60405180910390f35b3480156103af57600080fd5b506103ca60048036038101906103c59190612564565b610daa565b005b3480156103d857600080fd5b506103f360048036038101906103ee91906126d9565b610dc0565b005b34801561040157600080fd5b5061041c6004803603810190610417919061275c565b610e22565b604051610429919061251d565b60405180910390f35b34801561043e57600080fd5b5061045960048036038101906104549190612399565b610ef5565b6040516104669190612341565b60405180910390f35b34801561047b57600080fd5b506104966004803603810190610491919061279c565b610f5d565b6040516104a39190612296565b60405180910390f35b3480156104b857600080fd5b506104d360048036038101906104ce91906124e1565b610ff1565b005b3480156104e157600080fd5b506104fc60048036038101906104f7919061287d565b611074565b005b34801561050a57600080fd5b5061052560048036038101906105209190612399565b6111b4565b604051610534939291906128d9565b60405180910390f35b34801561054957600080fd5b50610564600480360381019061055f9190612917565b611266565b005b60007f80ac58cd000000000000000000000000000000000000000000000000000000007bffffffffffffffffffffffffffffffffffffffffffffffffffffffff1916827bffffffffffffffffffffffffffffffffffffffffffffffffffffffff1916148061063157507f5b5e139f000000000000000000000000000000000000000000000000000000007bffffffffffffffffffffffffffffffffffffffffffffffffffffffff1916827bffffffffffffffffffffffffffffffffffffffffffffffffffffffff1916145b80610641575061064082611311565b5b9050919050565b60606000805461065790612986565b80601f016020809104026020016040519081016040528092919081815260200182805461068390612986565b80156106d05780601f106106a5576101008083540402835291602001916106d0565b820191906000526020600020905b8154815290600101906020018083116106b357829003601f168201915b5050505050905090565b60006106e58261137b565b6004600083815260200190815260200160002060009054906101000a900473ffffffffffffffffffffffffffffffffffffffff169050919050565b600061072b82610ac6565b90508073ffffffffffffffffffffffffffffffffffffffff168373ffffffffffffffffffffffffffffffffffffffff160361079b576040517f08c379a000000000000000000000000000000000000000000000000000000000815260040161079290612a29565b60405180910390fd5b8073ffffffffffffffffffffffffffffffffffffffff166107ba6113c6565b73ffffffffffffffffffffffffffffffffffffffff1614806107e957506107e8816107e36113c6565b610f5d565b5b610828576040517f08c379a000000000000000000000000000000000000000000000000000000000815260040161081f90612abb565b60405180910390fd5b61083283836113ce565b505050565b6108486108426113c6565b82611487565b610887576040517f08c379a000000000000000000000000000000000000000000000000000000000815260040161087e90612b4d565b60405180910390fd5b61089283838361151c565b505050565b6000600860008381526020019081526020016000209050818160000154146108f4576040517f08c379a00000000000000000000000000000000000000000000000000000000081526004016108eb90612bb9565b60405180910390fd5b8060020154341461093a576040517f08c379a000000000000000000000000000000000000000000000000000000000815260040161093190612c4b565b60405180910390fd5b600061094583610ac6565b90503373ffffffffffffffffffffffffffffffffffffffff168173ffffffffffffffffffffffffffffffffffffffff16036109b5576040517f08c379a00000000000000000000000000000000000000000000000000000000081526004016109ac90612cb7565b60405180910390fd5b6109c081338561151c565b8160020154341115610a0e57827f8b49109cd5767f43f65aaaae99075135a684e87312ed89a5e0d69e96bed715cb346040516109fc919061251d565b60405180910390a23482600201819055505b3373ffffffffffffffffffffffffffffffffffffffff16837ff17a6666765db393a6218bb324c4de5cc60c9ee3b981bd102ba416effc13b89534604051610a55919061251d565b60405180910390a33373ffffffffffffffffffffffffffffffffffffffff16837f86cb3b6b6e302c935ecd43df172fbd13ea91a770280759a2bebf71f89985c91160405160405180910390a3505050565b610ac183838360405180602001604052806000815250610dc0565b505050565b600080610ad283611815565b9050600073ffffffffffffffffffffffffffffffffffffffff168173ffffffffffffffffffffffffffffffffffffffff1603610b43576040517f08c379a0000000000000000000000000000000000000000000000000000000008152600401610b3a90612d23565b60405180910390fd5b80915050919050565b60008073ffffffffffffffffffffffffffffffffffffffff168273ffffffffffffffffffffffffffffffffffffffff1603610bbc576040517f08c379a0000000000000000000000000000000000000000000000000000000008152600401610bb390612db5565b60405180910390fd5b600360008373ffffffffffffffffffffffffffffffffffffffff1673ffffffffffffffffffffffffffffffffffffffff168152602001908152602001600020549050919050565b610c0b611852565b610c1560006118d0565b565b6000600660009054906101000a900473ffffffffffffffffffffffffffffffffffffffff16905090565b610c49611852565b6000610c5482610ac6565b90508273ffffffffffffffffffffffffffffffffffffffff168173ffffffffffffffffffffffffffffffffffffffff1603610cc4576040517f08c379a0000000000000000000000000000000000000000000000000000000008152600401610cbb90612e47565b60405180910390fd5b610ccf81848461151c565b8273ffffffffffffffffffffffffffffffffffffffff16827f86cb3b6b6e302c935ecd43df172fbd13ea91a770280759a2bebf71f89985c91160405160405180910390a3505050565b606060018054610d2790612986565b80601f0160208091040260200160405190810160405280929190818152602001828054610d5390612986565b8015610da05780601f10610d7557610100808354040283529160200191610da0565b820191906000526020600020905b815481529060010190602001808311610d8357829003601f168201915b5050505050905090565b610dbc610db56113c6565b8383611996565b5050565b610dd1610dcb6113c6565b83611487565b610e10576040517f08c379a0000000000000000000000000000000000000000000000000000000008152600401610e0790612b4d565b60405180910390fd5b610e1c84848484611b02565b50505050565b60008060086000858152602001908152602001600020905083816000015414610e80576040517f08c379a0000000000000000000000000000000000000000000000000000000008152600401610e7790612eb3565b60405180910390fd5b60006064905060008260030160008673ffffffffffffffffffffffffffffffffffffffff1673ffffffffffffffffffffffffffffffffffffffff168152602001908152602001600020549050600082606483610edc9190612f02565b610ee69190612f73565b90508094505050505092915050565b6060610f008261137b565b6000610f0a611b5e565b90506000815111610f2a5760405180602001604052806000815250610f55565b80610f3484611b75565b604051602001610f45929190612fe0565b6040516020818303038152906040525b915050919050565b6000600560008473ffffffffffffffffffffffffffffffffffffffff1673ffffffffffffffffffffffffffffffffffffffff16815260200190815260200160002060008373ffffffffffffffffffffffffffffffffffffffff1673ffffffffffffffffffffffffffffffffffffffff16815260200190815260200160002060009054906101000a900460ff16905092915050565b610ff9611852565b600073ffffffffffffffffffffffffffffffffffffffff168173ffffffffffffffffffffffffffffffffffffffff1603611068576040517f08c379a000000000000000000000000000000000000000000000000000000000815260040161105f90613076565b60405180910390fd5b611071816118d0565b50565b61107c611852565b600160075461108b9190613096565b600781905550600060075490506000600860008381526020019081526020016000209050818160000181905550838160010190816110c9919061327c565b5082816002018190555060648160030160003373ffffffffffffffffffffffffffffffffffffffff1673ffffffffffffffffffffffffffffffffffffffff168152602001908152602001600020819055506111243383611c43565b817fca5ae189781a447a208f1face1d2a31948bbe025c23d477b54af011fac40916c858560405161115692919061334e565b60405180910390a23373ffffffffffffffffffffffffffffffffffffffff16827fefa6fbbae1b34c8dbf0bd0709da0ded7b338eb562b66787895bb9dbc7e252e4e60646040516111a691906133b9565b60405180910390a350505050565b60086020528060005260406000206000915090508060000154908060010180546111dd90612986565b80601f016020809104026020016040519081016040528092919081815260200182805461120990612986565b80156112565780601f1061122b57610100808354040283529160200191611256565b820191906000526020600020905b81548152906001019060200180831161123957829003601f168201915b5050505050908060020154905083565b61126e611852565b6000600860008481526020019081526020016000209050828160000154146112cb576040517f08c379a00000000000000000000000000000000000000000000000000000000081526004016112c290612bb9565b60405180910390fd5b827f8b49109cd5767f43f65aaaae99075135a684e87312ed89a5e0d69e96bed715cb836040516112fb919061251d565b60405180910390a2818160020181905550505050565b60007f01ffc9a7000000000000000000000000000000000000000000000000000000007bffffffffffffffffffffffffffffffffffffffffffffffffffffffff1916827bffffffffffffffffffffffffffffffffffffffffffffffffffffffff1916149050919050565b61138481611e60565b6113c3576040517f08c379a00000000000000000000000000000000000000000000000000000000081526004016113ba90612d23565b60405180910390fd5b50565b600033905090565b816004600083815260200190815260200160002060006101000a81548173ffffffffffffffffffffffffffffffffffffffff021916908373ffffffffffffffffffffffffffffffffffffffff160217905550808273ffffffffffffffffffffffffffffffffffffffff1661144183610ac6565b73ffffffffffffffffffffffffffffffffffffffff167f8c5be1e5ebec7d5bd14f71427d1e84f3dd0314c0f7b2291e5b200ac8c7c3b92560405160405180910390a45050565b60008061149383610ac6565b90508073ffffffffffffffffffffffffffffffffffffffff168473ffffffffffffffffffffffffffffffffffffffff1614806114d557506114d48185610f5d565b5b8061151357508373ffffffffffffffffffffffffffffffffffffffff166114fb846106da565b73ffffffffffffffffffffffffffffffffffffffff16145b91505092915050565b8273ffffffffffffffffffffffffffffffffffffffff1661153c82610ac6565b73ffffffffffffffffffffffffffffffffffffffff1614611592576040517f08c379a000000000000000000000000000000000000000000000000000000000815260040161158990613446565b60405180910390fd5b600073ffffffffffffffffffffffffffffffffffffffff168273ffffffffffffffffffffffffffffffffffffffff1603611601576040517f08c379a00000000000000000000000000000000000000000000000000000000081526004016115f8906134d8565b60405180910390fd5b61160e8383836001611ea1565b8273ffffffffffffffffffffffffffffffffffffffff1661162e82610ac6565b73ffffffffffffffffffffffffffffffffffffffff1614611684576040517f08c379a000000000000000000000000000000000000000000000000000000000815260040161167b90613446565b60405180910390fd5b6004600082815260200190815260200160002060006101000a81549073ffffffffffffffffffffffffffffffffffffffff02191690556001600360008573ffffffffffffffffffffffffffffffffffffffff1673ffffffffffffffffffffffffffffffffffffffff168152602001908152602001600020600082825403925050819055506001600360008473ffffffffffffffffffffffffffffffffffffffff1673ffffffffffffffffffffffffffffffffffffffff16815260200190815260200160002060008282540192505081905550816002600083815260200190815260200160002060006101000a81548173ffffffffffffffffffffffffffffffffffffffff021916908373ffffffffffffffffffffffffffffffffffffffff160217905550808273ffffffffffffffffffffffffffffffffffffffff168473ffffffffffffffffffffffffffffffffffffffff167fddf252ad1be2c89b69c2b068fc378daa952ba7f163c4a11628f55a4df523b3ef60405160405180910390a46118108383836001611ea7565b505050565b60006002600083815260200190815260200160002060009054906101000a900473ffffffffffffffffffffffffffffffffffffffff169050919050565b61185a6113c6565b73ffffffffffffffffffffffffffffffffffffffff16611878610c17565b73ffffffffffffffffffffffffffffffffffffffff16146118ce576040517f08c379a00000000000000000000000000000000000000000000000000000000081526004016118c590613544565b60405180910390fd5b565b6000600660009054906101000a900473ffffffffffffffffffffffffffffffffffffffff16905081600660006101000a81548173ffffffffffffffffffffffffffffffffffffffff021916908373ffffffffffffffffffffffffffffffffffffffff1602179055508173ffffffffffffffffffffffffffffffffffffffff168173ffffffffffffffffffffffffffffffffffffffff167f8be0079c531659141344cd1fd0a4f28419497f9722a3daafe3b4186f6b6457e060405160405180910390a35050565b8173ffffffffffffffffffffffffffffffffffffffff168373ffffffffffffffffffffffffffffffffffffffff1603611a04576040517f08c379a00000000000000000000000000000000000000000000000000000000081526004016119fb906135b0565b60405180910390fd5b80600560008573ffffffffffffffffffffffffffffffffffffffff1673ffffffffffffffffffffffffffffffffffffffff16815260200190815260200160002060008473ffffffffffffffffffffffffffffffffffffffff1673ffffffffffffffffffffffffffffffffffffffff16815260200190815260200160002060006101000a81548160ff0219169083151502179055508173ffffffffffffffffffffffffffffffffffffffff168373ffffffffffffffffffffffffffffffffffffffff167f17307eab39ab6107e8899845ad3d59bd9653f200f220920489ca2b5937696c3183604051611af59190612296565b60405180910390a3505050565b611b0d84848461151c565b611b1984848484611ead565b611b58576040517f08c379a0000000000000000000000000000000000000000000000000000000008152600401611b4f90613642565b60405180910390fd5b50505050565b606060405180602001604052806000815250905090565b606060006001611b848461206c565b01905060008167ffffffffffffffff811115611ba357611ba26125ae565b5b6040519080825280601f01601f191660200182016040528015611bd55781602001600182028036833780820191505090505b509050600082602001820190505b600115611c38578080600190039150507f3031323334353637383961626364656600000000000000000000000000000000600a86061a8153600a8581611c2c57611c2b612f44565b5b04945060008503611be3575b819350505050919050565b600073ffffffffffffffffffffffffffffffffffffffff168273ffffffffffffffffffffffffffffffffffffffff1603611cb2576040517f08c379a0000000000000000000000000000000000000000000000000000000008152600401611ca9906136ae565b60405180910390fd5b611cbb81611e60565b15611cfb576040517f08c379a0000000000000000000000000000000000000000000000000000000008152600401611cf29061371a565b60405180910390fd5b611d09600083836001611ea1565b611d1281611e60565b15611d52576040517f08c379a0000000000000000000000000000000000000000000000000000000008152600401611d499061371a565b60405180910390fd5b6001600360008473ffffffffffffffffffffffffffffffffffffffff1673ffffffffffffffffffffffffffffffffffffffff16815260200190815260200160002060008282540192505081905550816002600083815260200190815260200160002060006101000a81548173ffffffffffffffffffffffffffffffffffffffff021916908373ffffffffffffffffffffffffffffffffffffffff160217905550808273ffffffffffffffffffffffffffffffffffffffff16600073ffffffffffffffffffffffffffffffffffffffff167fddf252ad1be2c89b69c2b068fc378daa952ba7f163c4a11628f55a4df523b3ef60405160405180910390a4611e5c600083836001611ea7565b5050565b60008073ffffffffffffffffffffffffffffffffffffffff16611e8283611815565b73ffffffffffffffffffffffffffffffffffffffff1614159050919050565b50505050565b50505050565b6000611ece8473ffffffffffffffffffffffffffffffffffffffff166121bf565b1561205f578373ffffffffffffffffffffffffffffffffffffffff1663150b7a02611ef76113c6565b8786866040518563ffffffff167c0100000000000000000000000000000000000000000000000000000000028152600401611f35949392919061378f565b6020604051808303816000875af1925050508015611f7157506040513d601f19601f82011682018060405250810190611f6e91906137f0565b60015b611ff3573d8060008114611fa1576040519150601f19603f3d011682016040523d82523d6000602084013e611fa6565b606091505b506000815103611feb576040517f08c379a0000000000000000000000000000000000000000000000000000000008152600401611fe290613642565b60405180910390fd5b805181602001fd5b63150b7a027c0100000000000000000000000000000000000000000000000000000000027bffffffffffffffffffffffffffffffffffffffffffffffffffffffff1916817bffffffffffffffffffffffffffffffffffffffffffffffffffffffff191614915050612064565b600190505b949350505050565b600080600090507a184f03e93ff9f4daa797ed6e38ed64bf6a1f01000000000000000083106120ca577a184f03e93ff9f4daa797ed6e38ed64bf6a1f01000000000000000083816120c0576120bf612f44565b5b0492506040810190505b6d04ee2d6d415b85acef81000000008310612107576d04ee2d6d415b85acef810000000083816120fd576120fc612f44565b5b0492506020810190505b662386f26fc10000831061213657662386f26fc10000838161212c5761212b612f44565b5b0492506010810190505b6305f5e100831061215f576305f5e100838161215557612154612f44565b5b0492506008810190505b612710831061218457612710838161217a57612179612f44565b5b0492506004810190505b606483106121a7576064838161219d5761219c612f44565b5b0492506002810190505b600a83106121b6576001810190505b80915050919050565b6000808273ffffffffffffffffffffffffffffffffffffffff163b119050919050565b6000604051905090565b600080fd5b600080fd5b60007fffffffff0000000000000000000000000000000000000000000000000000000082169050919050565b61222b816121f6565b811461223657600080fd5b50565b60008135905061224881612222565b92915050565b600060208284031215612264576122636121ec565b5b600061227284828501612239565b91505092915050565b60008115159050919050565b6122908161227b565b82525050565b60006020820190506122ab6000830184612287565b92915050565b600081519050919050565b600082825260208201905092915050565b60005b838110156122eb5780820151818401526020810190506122d0565b60008484015250505050565b6000601f19601f8301169050919050565b6000612313826122b1565b61231d81856122bc565b935061232d8185602086016122cd565b612336816122f7565b840191505092915050565b6000602082019050818103600083015261235b8184612308565b905092915050565b6000819050919050565b61237681612363565b811461238157600080fd5b50565b6000813590506123938161236d565b92915050565b6000602082840312156123af576123ae6121ec565b5b60006123bd84828501612384565b91505092915050565b600073ffffffffffffffffffffffffffffffffffffffff82169050919050565b60006123f1826123c6565b9050919050565b612401816123e6565b82525050565b600060208201905061241c60008301846123f8565b92915050565b61242b816123e6565b811461243657600080fd5b50565b60008135905061244881612422565b92915050565b60008060408385031215612465576124646121ec565b5b600061247385828601612439565b925050602061248485828601612384565b9150509250929050565b6000806000606084860312156124a7576124a66121ec565b5b60006124b586828701612439565b93505060206124c686828701612439565b92505060406124d786828701612384565b9150509250925092565b6000602082840312156124f7576124f66121ec565b5b600061250584828501612439565b91505092915050565b61251781612363565b82525050565b6000602082019050612532600083018461250e565b92915050565b6125418161227b565b811461254c57600080fd5b50565b60008135905061255e81612538565b92915050565b6000806040838503121561257b5761257a6121ec565b5b600061258985828601612439565b925050602061259a8582860161254f565b9150509250929050565b600080fd5b600080fd5b7f4e487b7100000000000000000000000000000000000000000000000000000000600052604160045260246000fd5b6125e6826122f7565b810181811067ffffffffffffffff82111715612605576126046125ae565b5b80604052505050565b60006126186121e2565b905061262482826125dd565b919050565b600067ffffffffffffffff821115612644576126436125ae565b5b61264d826122f7565b9050602081019050919050565b82818337600083830152505050565b600061267c61267784612629565b61260e565b905082815260208101848484011115612698576126976125a9565b5b6126a384828561265a565b509392505050565b600082601f8301126126c0576126bf6125a4565b5b81356126d0848260208601612669565b91505092915050565b600080600080608085870312156126f3576126f26121ec565b5b600061270187828801612439565b945050602061271287828801612439565b935050604061272387828801612384565b925050606085013567ffffffffffffffff811115612744576127436121f1565b5b612750878288016126ab565b91505092959194509250565b60008060408385031215612773576127726121ec565b5b600061278185828601612384565b925050602061279285828601612439565b9150509250929050565b600080604083850312156127b3576127b26121ec565b5b60006127c185828601612439565b92505060206127d285828601612439565b9150509250929050565b600067ffffffffffffffff8211156127f7576127f66125ae565b5b612800826122f7565b9050602081019050919050565b600061282061281b846127dc565b61260e565b90508281526020810184848401111561283c5761283b6125a9565b5b61284784828561265a565b509392505050565b600082601f830112612864576128636125a4565b5b813561287484826020860161280d565b91505092915050565b60008060408385031215612894576128936121ec565b5b600083013567ffffffffffffffff8111156128b2576128b16121f1565b5b6128be8582860161284f565b92505060206128cf85828601612384565b9150509250929050565b60006060820190506128ee600083018661250e565b81810360208301526129008185612308565b905061290f604083018461250e565b949350505050565b6000806040838503121561292e5761292d6121ec565b5b600061293c85828601612384565b925050602061294d85828601612384565b9150509250929050565b7f4e487b7100000000000000000000000000000000000000000000000000000000600052602260045260246000fd5b6000600282049050600182168061299e57607f821691505b6020821081036129b1576129b0612957565b5b50919050565b7f4552433732313a20617070726f76616c20746f2063757272656e74206f776e6560008201527f7200000000000000000000000000000000000000000000000000000000000000602082015250565b6000612a136021836122bc565b9150612a1e826129b7565b604082019050919050565b60006020820190508181036000830152612a4281612a06565b9050919050565b7f4552433732313a20617070726f76652063616c6c6572206973206e6f7420746f60008201527f6b656e206f776e6572206f7220617070726f76656420666f7220616c6c000000602082015250565b6000612aa5603d836122bc565b9150612ab082612a49565b604082019050919050565b60006020820190508181036000830152612ad481612a98565b9050919050565b7f4552433732313a2063616c6c6572206973206e6f7420746f6b656e206f776e6560008201527f72206f7220617070726f76656400000000000000000000000000000000000000602082015250565b6000612b37602d836122bc565b9150612b4282612adb565b604082019050919050565b60006020820190508181036000830152612b6681612b2a565b9050919050565b7f50726f706572747920646f6573206e6f742065786973742e0000000000000000600082015250565b6000612ba36018836122bc565b9150612bae82612b6d565b602082019050919050565b60006020820190508181036000830152612bd281612b96565b9050919050565b7f496e73756666696369656e742066756e647320746f206275792074686520707260008201527f6f70657274792e00000000000000000000000000000000000000000000000000602082015250565b6000612c356027836122bc565b9150612c4082612bd9565b604082019050919050565b60006020820190508181036000830152612c6481612c28565b9050919050565b7f596f7520616c7265616479206f776e20746869732070726f70657274792e0000600082015250565b6000612ca1601e836122bc565b9150612cac82612c6b565b602082019050919050565b60006020820190508181036000830152612cd081612c94565b9050919050565b7f4552433732313a20696e76616c696420746f6b656e2049440000000000000000600082015250565b6000612d0d6018836122bc565b9150612d1882612cd7565b602082019050919050565b60006020820190508181036000830152612d3c81612d00565b9050919050565b7f4552433732313a2061646472657373207a65726f206973206e6f74206120766160008201527f6c6964206f776e65720000000000000000000000000000000000000000000000602082015250565b6000612d9f6029836122bc565b9150612daa82612d43565b604082019050919050565b60006020820190508181036000830152612dce81612d92565b9050919050565b7f546865206e6577206f776e657220697320616c7265616479207468652063757260008201527f72656e74204f776e65722e000000000000000000000000000000000000000000602082015250565b6000612e31602b836122bc565b9150612e3c82612dd5565b604082019050919050565b60006020820190508181036000830152612e6081612e24565b9050919050565b7f50726f706572747920646f6573206e6f74206578697374732e00000000000000600082015250565b6000612e9d6019836122bc565b9150612ea882612e67565b602082019050919050565b60006020820190508181036000830152612ecc81612e90565b9050919050565b7f4e487b7100000000000000000000000000000000000000000000000000000000600052601160045260246000fd5b6000612f0d82612363565b9150612f1883612363565b9250828202612f2681612363565b91508282048414831517612f3d57612f3c612ed3565b5b5092915050565b7f4e487b7100000000000000000000000000000000000000000000000000000000600052601260045260246000fd5b6000612f7e82612363565b9150612f8983612363565b925082612f9957612f98612f44565b5b828204905092915050565b600081905092915050565b6000612fba826122b1565b612fc48185612fa4565b9350612fd48185602086016122cd565b80840191505092915050565b6000612fec8285612faf565b9150612ff88284612faf565b91508190509392505050565b7f4f776e61626c653a206e6577206f776e657220697320746865207a65726f206160008201527f6464726573730000000000000000000000000000000000000000000000000000602082015250565b60006130606026836122bc565b915061306b82613004565b604082019050919050565b6000602082019050818103600083015261308f81613053565b9050919050565b60006130a182612363565b91506130ac83612363565b92508282019050808211156130c4576130c3612ed3565b5b92915050565b60008190508160005260206000209050919050565b60006020601f8301049050919050565b60008160020a8302905092915050565b60006008830261312f7fffffffffffffffffffffffffffffffffffffffffffffffffffffffffffffffff826130ef565b61313986836130ef565b95508019841693508086168417925050509392505050565b6000819050919050565b600061317661317161316c84612363565b613151565b612363565b9050919050565b6000819050919050565b6131908361315b565b6131a461319c8261317d565b8484546130ff565b825550505050565b600090565b6131b96131ac565b6131c4818484613187565b505050565b5b818110156131e8576131dd6000826131b1565b6001810190506131ca565b5050565b601f82111561322d576131fe816130ca565b613207846130df565b81016020851015613216578190505b61322a613222856130df565b8301826131c9565b50505b505050565b60008160020a8304905092915050565b600061325360001984600802613232565b1980831691505092915050565b600061326c8383613242565b9150826002028217905092915050565b613285826122b1565b67ffffffffffffffff81111561329e5761329d6125ae565b5b6132a88254612986565b6132b38282856131ec565b600060209050601f8311600181146132e657600084156132d4578287015190505b6132de8582613260565b865550613346565b601f1984166132f4866130ca565b60005b8281101561331c578489015182556001820191506020850194506020810190506132f7565b868310156133395784890151613335601f891682613242565b8355505b6001600288020188555050505b505050505050565b600060408201905081810360008301526133688185612308565b9050613377602083018461250e565b9392505050565b6000819050919050565b60006133a361339e6133998461337e565b613151565b612363565b9050919050565b6133b381613388565b82525050565b60006020820190506133ce60008301846133aa565b92915050565b7f4552433732313a207472616e736665722066726f6d20696e636f72726563742060008201527f6f776e6572000000000000000000000000000000000000000000000000000000602082015250565b60006134306025836122bc565b915061343b826133d4565b604082019050919050565b6000602082019050818103600083015261345f81613423565b9050919050565b7f4552433732313a207472616e7366657220746f20746865207a65726f2061646460008201527f7265737300000000000000000000000000000000000000000000000000000000602082015250565b60006134c26024836122bc565b91506134cd82613466565b604082019050919050565b600060208201905081810360008301526134f1816134b5565b9050919050565b7f4f776e61626c653a2063616c6c6572206973206e6f7420746865206f776e6572600082015250565b600061352e6020836122bc565b9150613539826134f8565b602082019050919050565b6000602082019050818103600083015261355d81613521565b9050919050565b7f4552433732313a20617070726f766520746f2063616c6c657200000000000000600082015250565b600061359a6019836122bc565b91506135a582613564565b602082019050919050565b600060208201905081810360008301526135c98161358d565b9050919050565b7f4552433732313a207472616e7366657220746f206e6f6e20455243373231526560008201527f63656976657220696d706c656d656e7465720000000000000000000000000000602082015250565b600061362c6032836122bc565b9150613637826135d0565b604082019050919050565b6000602082019050818103600083015261365b8161361f565b9050919050565b7f4552433732313a206d696e7420746f20746865207a65726f2061646472657373600082015250565b60006136986020836122bc565b91506136a382613662565b602082019050919050565b600060208201905081810360008301526136c78161368b565b9050919050565b7f4552433732313a20746f6b656e20616c7265616479206d696e74656400000000600082015250565b6000613704601c836122bc565b915061370f826136ce565b602082019050919050565b60006020820190508181036000830152613733816136f7565b9050919050565b600081519050919050565b600082825260208201905092915050565b60006137618261373a565b61376b8185613745565b935061377b8185602086016122cd565b613784816122f7565b840191505092915050565b60006080820190506137a460008301876123f8565b6137b160208301866123f8565b6137be604083018561250e565b81810360608301526137d08184613756565b905095945050505050565b6000815190506137ea81612222565b92915050565b600060208284031215613806576138056121ec565b5b6000613814848285016137db565b9150509291505056fea2646970667358221220e52dde6b553c900fcf69c17c1013317065ae21ed396c306ee3fcad2b5291801264736f6c63430008110033",
  "immutableReferences": {},
  "source": "// SPDX-License-Identifier: MIT\npragma solidity ^0.8.17;\n\nimport \"@openzeppelin/contracts/token/ERC721/ERC721.sol\";\nimport \"@openzeppelin/contracts/access/Ownable.sol\";\n\ncontract Property is ERC721, Ownable {\n\n  constructor() ERC721(\"LandOwnership\", \"LRS\"){}\n\n  struct LandProperty {\n    uint256 propertyId;\n    string location;\n    uint256 price;\n    mapping(address => uint256) shares;\n  }\n\n//   LandProperty public landPropertyInstance;\n  \n  // token Id counter\n  uint256 private _propertyIdCounter;\n\n  // properties owned\n  mapping(uint256 => LandProperty) public properties;\n\n  // Events:\n  // PropertyCreated\n  event PropertyCreated(\n    uint256 indexed propertyId, \n    string location, \n    uint256 price\n  );\n\n  // PropertyTransfered\n  event PropertyTransfered(\n    uint256 indexed propertyId, \n    address indexed buyer\n  );\n  \n  // PropertySold\n  event PropertySold(\n    uint256 indexed propertyId, \n    address indexed buyer, \n    uint256 price\n  );\n  \n  // PropertyUpdatedPrice\n  event UpdatePrice(\n    uint256 indexed propertyId, \n    uint256 new_price\n  );\n  \n  // Nominated\n  event Nominated(\n    uint256 indexed propertyId, \n    address indexed nominee\n  );\n\n  // SharedOwnerAdded\n  event SharedOwnerUpdate(\n    uint256 indexed propertyId, \n    address indexed owner, \n    uint256 shares\n  );\n\n  // TODO:\n  // CreateProperty\n  function CreateProperty(string memory _location, uint256 _price) public onlyOwner {\n    _propertyIdCounter = _propertyIdCounter + 1;\n    uint256 newPropertyId = _propertyIdCounter;\n\n    // error location\n    //  LandProperty(newPropertyId, _location, _price, _shares);\n    LandProperty storage newLandProperty = properties[newPropertyId];\n    newLandProperty.propertyId = newPropertyId;\n    newLandProperty.location = _location;\n    newLandProperty.price = _price;\n    newLandProperty.shares[msg.sender] = 100;\n\n    // minting the Property\n    _mint(msg.sender, newPropertyId);\n\n    emit PropertyCreated(newPropertyId, _location, _price);\n    emit SharedOwnerUpdate(newPropertyId, msg.sender, 100);\n  }\n  \n  // BuyProperty\n  function BuyProperty(uint256 _propertyId) public payable {\n    LandProperty storage landprop = properties[_propertyId];\n    require(landprop.propertyId == _propertyId, \"Property does not exist.\");\n    require(msg.value == landprop.price, \"Insufficient funds to buy the property.\");  \n\n    address propertyOwner = ownerOf(_propertyId);\n    require(propertyOwner != msg.sender, \"You already own this property.\");\n\n    _transfer(propertyOwner, msg.sender, _propertyId);\n    if (msg.value > landprop.price) {\n        emit UpdatePrice(_propertyId, msg.value);\n        landprop.price = msg.value;\n    }\n\n    emit PropertySold(_propertyId, msg.sender, msg.value);\n    emit PropertyTransfered(_propertyId, msg.sender);\n  }\n\n  // SetPropertyPrice / UpdatePropertyPrice\n  function updatePropertyPrice(uint256 _propertyId, uint256 _newPrice) public onlyOwner{\n      LandProperty storage landprop = properties[_propertyId];\n      require(landprop.propertyId == _propertyId, \"Property does not exist.\");\n\n      emit UpdatePrice(_propertyId, _newPrice);\n      landprop.price = _newPrice;\n  }\n\n    // TransferOwnership \n  function TransferOwnership(address _newOwner, uint256 _propertyId) public onlyOwner {\n      address currentOwner = ownerOf(_propertyId);\n      require(currentOwner != _newOwner, \"The new owner is already the current Owner.\");\n\n      _transfer(currentOwner, _newOwner, _propertyId);\n      emit PropertyTransfered(_propertyId, _newOwner);\n  }\n  \n  // PropertyNominee\n  // function PropertyNominee() public {}\n  \n  // GetOwnershipPercentage\n  function GetOwnerhipPercentage(uint256 _propertyId, address _owner) public view returns(uint256) {\n      LandProperty storage landprop = properties[_propertyId];\n      require(landprop.propertyId == _propertyId, \"Property does not exists.\");\n\n      uint256 totalShares = 100;\n\n      uint256 ownerShares = landprop.shares[_owner];\n      uint256 ownershipPercentage = (ownerShares * 100) / totalShares;\n      return ownershipPercentage;\n  }\n\n  // UpdateSharedOwner\n  // function UpdateSharedOwner() public {}\n  \n  // AddSharedOwner\n  function AddSharedOwner(address _sharedOwner, uint256 _shares, uint256 _propertyId) private onlyOwner { \n      LandProperty storage landprop = properties[_propertyId];\n      require(landprop.propertyId == _propertyId, \"Property does not exist.\");\n\n      uint256 previousShares = landprop.shares[msg.sender];\n\n      landprop.shares[msg.sender] = previousShares - _shares;\n      landprop.shares[_sharedOwner] = _shares;\n\n      emit SharedOwnerUpdate(_propertyId, _sharedOwner, _shares);\n      emit SharedOwnerUpdate(_propertyId, msg.sender, landprop.shares[msg.sender]);\n  }\n}\n",
  "sourcePath": "/Users/siddhantprateek/Documents/originlab/polychain/contracts/Property.sol",
  "compiler": {
    "name": "solc",
    "version": "0.8.17+commit.8df45f5f.Emscripten.clang"
  },
  "schemaVersion": "3.4.14",
  "updatedAt": "2023-06-18T18:34:08.067Z",
  "networkType": "ethereum",
  "devdoc": {
    "kind": "dev",
    "methods": {
      "approve(address,uint256)": {
        "details": "See {IERC721-approve}."
      },
      "balanceOf(address)": {
        "details": "See {IERC721-balanceOf}."
      },
      "getApproved(uint256)": {
        "details": "See {IERC721-getApproved}."
      },
      "isApprovedForAll(address,address)": {
        "details": "See {IERC721-isApprovedForAll}."
      },
      "name()": {
        "details": "See {IERC721Metadata-name}."
      },
      "owner()": {
        "details": "Returns the address of the current owner."
      },
      "ownerOf(uint256)": {
        "details": "See {IERC721-ownerOf}."
      },
      "renounceOwnership()": {
        "details": "Leaves the contract without owner. It will not be possible to call `onlyOwner` functions. Can only be called by the current owner. NOTE: Renouncing ownership will leave the contract without an owner, thereby disabling any functionality that is only available to the owner."
      },
      "safeTransferFrom(address,address,uint256)": {
        "details": "See {IERC721-safeTransferFrom}."
      },
      "safeTransferFrom(address,address,uint256,bytes)": {
        "details": "See {IERC721-safeTransferFrom}."
      },
      "setApprovalForAll(address,bool)": {
        "details": "See {IERC721-setApprovalForAll}."
      },
      "supportsInterface(bytes4)": {
        "details": "See {IERC165-supportsInterface}."
      },
      "symbol()": {
        "details": "See {IERC721Metadata-symbol}."
      },
      "tokenURI(uint256)": {
        "details": "See {IERC721Metadata-tokenURI}."
      },
      "transferFrom(address,address,uint256)": {
        "details": "See {IERC721-transferFrom}."
      },
      "transferOwnership(address)": {
        "details": "Transfers ownership of the contract to a new account (`newOwner`). Can only be called by the current owner."
      }
    },
    "version": 1
  },
  "userdoc": {
    "kind": "user",
    "methods": {},
    "version": 1
  }
}